:400000000040002011000000A5070000A507000008B500F0C9FBC04638B512222E4B1A6001F0FCF82D4801F053F8012001F016F9302001F05DF82A4A2A4B1A602A4C8025A1
:40004000ED052560294A116802230B431360284A284B1A60284A136808218B431360FA20C00001F0A7F8254801F09AF8BE22D201234B1A60234B244A1A60BC218901234A62
:400080001160234A1A6080214900224A1160224A1A6088218901214A1160214A1A6080221206204B1A608022D2021F4B1A6043221E4B1A60013A1E4B1A60023A1D4B1A60CA
:4000C00001321D4B1A6008201C4901F057F8082001F048F8256038BD30001040001BB7000600008004010B400C020B4078002E402D3E00007C002E406CF02E40DC050000E4
:400100000C0301400000014043FF00800803014042FF00800003014040FF00800403014041FF008008010B4000010B402C0101401C010140080101400401014075130000D0
:4001400010B572B600222D4B1A60002410E02C4863001A195200821891881B195B001A5AC31858880004104300F096FB0134E4B2012CECD92249081C0C30243100F062FB9B
:40018000204A214B1A60214A214B1A6099231B04204A1360204A1360E42109041F4A11601F4A13601F4B197802220A431A701E4802783C218A4328390A4302701978162258
:4001C0000A431A701D22194B1A60194A194B1A600D22194B1A601A32184B1A60C4229202174B1A602022174B1A60D8229202164B1A60FFF711FF00F03FFB10BD6CF02E40F0
:4002000000110100FFFF00EE00000240330399000001024000500F4010500F4018500F4030500F4000700F4001700F40000004408E6DD80008000440180004400001044015
:4002400008010440180104400803044010B5064C2378002B07D1054B002B02D0044800E000BF0123237010BD3804002000000000E010010008B5084B002B03D00748084919
:4002800000E000BF07480368002B00D108BD064B002BFBD09847F9E700000000E01001003C040020C80000200000000038B500F035FA1320832100F063FA124800F070FFFC
:4002C000012519E0104B1D7001240BE0132000F043FA80000C4B1855142000F061FF01F03FFB013496235B009C42EFDD064800F0EDF801F035FB0135032DE3DD00F00EFA3F
:4003000038BDC0460E0600003413002038B5022000F022FA032000F01FFA041CC5B2042000F01AFAC3B22B4308D0074B1A78A4181C705A788018587001229A70034A137823
:400340000133137038BDC046540400206B04002010B5044C2078617800F0A0F800232370637010BD5404002010B500F0BFFD114B186001281CD100F0BFFD0F4B1B78DB0712
:4003800012D5FFF7C3FF0D4B1B785BB2132B0FDD0B4B9B78012B0BD10024094B9C70FFF7D7FF064B1C7003E0054B00221A705A7010BDC04664140020680400206B040020AF
:4003C0005404002008B562B60F4800F0C3FD00F07DFD0E4800F07CFA00F09EFC00F0F6FCFF2000F069FCFF2000F06CFCFF2000F0BDFC062000F0FAFC062000F001FD06201E
:4004000000F008FD08BDC046690300007D05000008B562B6FFF7D6FF00F0B2FD01220A4B1A6000F0B9FD002000F044FE01F098FA064B1B78012BF9D1054B1B78DB07F5D5F9
:40044000FFF734FFF2E7C046CC0000206A04002069040020F8B504291FD1041C0078E7787843FB3101F040F9C6B260787843FF2101F03AF9C5B2A0787843FF2101F034F9C4
:40048000C4B2F043C0B200F017FCE843C0B200F019FCE043C0B200F069FCF8BD00B585B06B461870597001A912230B816B46019302238B80044A13785078000218430BF018
:4004C0008BFC05B000BDC046FC24002000B585B001A916230B8101902E23FF338B80044A13785078000218430BF076FC05B000BDFC24002000B585B0094B1B786A46137024
:400500000023537001A8133303810192022383800021044A3E330CF0EFF905B000BDC04668040020FC24002000B585B0094B5B786A4613700023537001A81733038101926B
:40054000022383800021044A3E330CF0D5F905B000BDC04668040020FC24002000B585B001AB1A8101909980181C0021024A00230CF0C2F905B000BDFC24002070B582B006
:400580000C1C28281ED008D8052800D1AFE026280FD0012800D0ADE007E042281ED04C2837D0412800D0A5E010E0002000F0D2F9A0E0514B1B78042B00D09BE0002000F039
:4005C000C9F997E0002000F0C5F993E04B48022201F0B1F901224A4B9A708BE0484E0024B47001AD2C706C70AC70EC70281C0421FFF730FF281C04210E22FFF7AFFF347017
:40060000747000F07FF8F470FFF774FFFFF78CFF70E08B890E2B13D14B681A7801AC22705A7862709A78A270DB78E370201C0421FFF710FF201C04210E22FFF78FFF4EE005
:40064000132B26D14A6812780321101C884312D12B4B1A70012A02D100F060F804E000F051F80022264BDA70201D0021234A00230CF042F933E0122269468A700B80042304
:40068000CB701E4A13785078000218430BF088FB30E0172B23D14A6812780321101C88430FD1174B5A70012A02D100F037F801E000F028F8201D0021104A00230CF01CF9C6
:4006C0000DE0122269468A700B800423CB700B4A13785078000218430BF062FB0AE0074A13785078000218430BF0D4FB02E00A78034B1A7102B070BDF6240020FC2400209B
:400700006804002008B5012000F0C8FC08BDC04608B5002000F0C2FC08BDC04608B5FFF7F7FF322000F03CFD012000F0C3FC4B2000F036FD002000F0BDFCFFF7E3FFFFF761
:40074000E7FF08BD08B500F03DFC062000F028FD00F032FC08BDC04610B57F240440FFF7D7FF201CFFF7EEFF322000F019FD0020FFF7E8FFC4B2FFF7C5FF201C10BDC04699
:4007800038B5051C0C1CFFF7C3FF80202843FFF7D9FF322000F004FD201CFFF7D3FFFFF7B1FF38BDFEE7C04670B50F4E0F4D13E029686B68AC68002202E001C901C3043294
:4007C000A242FAD1E868002202E0002102C304328242FAD11035013E002EE9D101F076F8FFF716FEFEE7C046010000003C18010008B50F4A136801218B43136000230AE034
:40080000032B03D89A000B49505800E00A4899000A4A885001332F2BF2D9FFF791FC0022074B1A60024A116801230B43136008BD0000104000000000A507000000000020CD
:40084000C0000020F0B50025002711E0BB00C658F3B2FF22964308E06A008A181478A419527822700135013BDBB2002BF4D10137052FEBD9F0BDC0460323044A1360044A9E
:4008800013600022034B1A607047C0463000304030003140000E3F4008B50A1C002101F053F808BD08B500F0EBF908BD08B50023044A1370044A1370044A1370FFF7F2FFBB
:4008C00008BDC046FF240020F8240020FE24002010B58AB0041C04A81649182201F02BF8154B1B78002B04D1FFF7E0FF0122124B1A70002C1AD0114B1C6006230093104B1D
:4009000001936E23FF3302930E480F498422520104AB01F03BF8002809D101220B4B1A700B4817210E320BF0CFFF00E001200AB010BDC046801201006D040020681400206A
:40094000001F0100B50A000070140020F62400208014010008B5022832D81D4B1B78042B30D11C4B1B785B072FD400280BD11A4B1A1C40323C2111828022596C0A805B6CF1
:4009800020325A800EE001280CD1134B1A1C403296211182C822D200596C0A805B6C8022D2015A800D4B18700B4840300AF0D2F800280CD1074A117804230B43137006E082
:4009C000012004E00420FF3001E00420FF3008BDF6240020FF240020D0000020FE2400207047C04603784078000218437047C04638B583890B2B20D1041C04300021221C1A
:400A000035330BF079FF051E11D16068FFF7EAFF830706D50A4B1B6882204000211C984705E0074B1B680620FF30211C9847054A137801218B43137000E00025281C38BD3E
:400A400068140020FF240020024B00225A701A707047C046FC2400208379002B07D000200BE0C25C002A07D10133DBB200E00023052BF6D9002000E00120704710B582B01C
:400A8000041CFFF7B5FF0A4B1B78DB070ED4002809D001A912238B70A3890B80C87020680BF07EF902E020680BF0F4F902B010BDFF240020F0B583B0051C0C1C614A117893
:400AC00001230B4313704C2800D9A9E083005E4AD3589F4601AE0727377000237370301C02F099FB377001237370301C02F093FB564B1E68301CFFF7AFFF00280CD0301CB3
:400B000000F032FF514E30680021FFF769FF30680121FFF765FF14E04D4B1B784D4E33704D4B1B7873704D4B1B78B370301C00F01BFF301C0021FFF753FF301C0121FFF7A2
:400B40004FFF032009F0C8FE0422454B1A7067E02278444B1A7063E03A4B1B789B065FD4414B1B78102B02D105223F4BDA703F4B18783D4909F0B8FF52E00222384B1A7001
:400B80004EE00422364B1A704AE0354B1B78022B46D02C4A1278D20742D52A4A1278520708D503222E4B1A70264A137804218B43137035E0234A1278120708D50422284BFE
:400BC0001A70204A137808218B43137028E0032B26D10422224B1A7022E0244E301C211C022200F0A8FE33785900CB185B002049C9186E31FF311F48062200F09CFE0FE098
:400C0000FFF722FF0CE061881B4B994201D98021890020880BF0D0F802E0201CFFF72EFF084B1A7811231A4209D0064A137801218B431370114B1B68281C211C984703B049
:400C4000F0BDC046FF240020B4160100240100207CF1FF0F280100207DF1FF0F7BF1FF0FF6240020F8240020FC010020FC240020001F0100F0240020FF01000068140020F1
:400C80007047C046024A117801230B431370704772000F40002803D0024B1870024B18707047C04642000F4002000F40014B18707047C04612000F40014B18707047C0466E
:400CC00022000F40014B18707047C04632000F4008B5FF20FFF7DEFFB820FFF7E7FF0120FFF7EAFF0120FFF7EDFF00F0FAF9084A117801230B43137000F0F7F9054B1A7896
:400D000002218A431A701A7802318A431A7008BD92000F4072000F4008B5064B1B78002B04D1FFF7D5FF0122024B1A70FFF7AAFF08BDC0466E040020024A117801230B430E
:400D40001370704773000F40002803D0024B1870024B18707047C04643000F4003000F40014B18707047C04613000F40014B18707047C04623000F40014B18707047C046AA
:400D800033000F4008B5FF20FFF7DEFFB820FFF7E7FF0120FFF7EAFF0120FFF7EDFF00F0A0F9084A117801230B43137000F09DF9054B1A7802218A431A701A7802318A437E
:400DC0001A7008BD93000F4073000F4008B5064B1B78002B04D1FFF7D5FF0122024B1A70FFF7AAFF08BDC0466F040020034A136807218B43184310607047C046080104400B
:400E0000034A136838218B43C00018431060704708010440034A1168034B0B408001184310607047080104403FFEFFFF0004000C014B18607047C046080120400004000C40
:400E4000014B18607047C0461401204038B5041C0D1C00F046F9AC40024B1C6000F045F938BDC0460800204008B500F03AF9064A116801230B43136000F037F901201821C9
:400E8000FFF7E4FF08BDC04600002040014B18607047C0463801204010B5094A094B1A600C22094B1A600120FFF7F0FFFA246400201CFFF7C3FF201CFFF7B8FF10BDC046FA
:400EC00000000102000120402401204008B5064B1B78002B04D1FFF7DFFF0122024B1A70FFF7C2FF08BDC04670040020014B18687047C0463C012040014B18607047C046DD
:400F0000300120408423014AD05070470000002010B5041C00F0E5F8044A1168044B0B40A4031C43146000F0E0F810BD10E400E0FF3FFFFF80229202014B1A607047C0464C
:400F400000E100E080229202014B1A607047C04680E100E010B5041CFFF7F4FF201CFFF7D1FF0320FFF7D4FFFFF7E4FF10BDC04608B500F035F808BD08B500F04FF808BDF6
:400F800008B5044A1368802109060B431360FFF7EFFF08BD0000254008B5064B1B78002B04D1FFF7E9FF0122024B1A70FFF7E8FF08BDC04671040020014B18687047C046ED
:400FC00040032540044B1B681F221340082BF9D0024B18607047C0460802254040022540054B1A68F02109020A431A601A68F02109010A431A6070470000024005490A687D
:40100000054B13408006C02212051040184308607047C04620002540FFFFFFF308B5104A104B1A60104A114B1A60114B114A13600721114A1160114A13600023104A136051
:40104000104A1360104A1360104A1360104A1360104A1360104A13600020FFF7CFFF08BD0F000001000025400D0000802000254007010080000325400403254000022540AF
:4010800004022540880E2540C80E2540480F2540080F2540C80F2540880F254004490A68EF231A400001DF3B18401043086070470000044004490A68DF231A404001BF3B75
:4010C000184010430860704700030440000000000230800803D00138FDD1C046C046C0467047EFF3108072B6704780F31088704710B586B0041CFFF7F4FF0E4B1B680093FC
:401100000D4B1B680193033C0C4B1B5D02930C4B1B68039304AA0B4B04936B4605930A4B1A600A490A4A11601B68FFF7DEFF06B010BDC04608010B4000010B40E8170100E3
:4011400030001040B6EA0000080010401700008004001040024B1B68012018407047C0460C002E401F2318401E3B8340181C014B1860704700E100E001BE704738B5041CE3
:401180000D1C1F2802D90020FFF7F6FFA400034B9C4664442068256038BDC0464000002008B5034B1B7A5843FFF792FF08BDC0460002002010B5041C0F4A116801230B431D
:4011C00013600E4A0E4B1A600E4A1368802109020B431360002809D100200CE00120FFF7DFFFFFF7B7FF002804D1013C002CF5D1102000E0002010BD60F02E400220000059
:4012000078002E4010002E40034B1868C0231B02184000D00120704700010B4010B50D4B1A6801218A431A601A68022082431A60094A10683024A043203C2043106010689C
:40124000093CA043014311601A68802109060A431A6010BD00F02E4000FF2E4038B51D4B1B6801241C40002802D0012816D02BE0184B1968012291431960196802208143D8
:401280001960154B19682E3081432038014319601968093881430A431A6018E00D4B1A6802218A431A600C4A10680725A8430143116011683020814310380143116019686F
:4012C00001220A431A6002E00020FFF755FF201C38BDC04600F02E4000FF2E4008B5FFF700FF044A1368C02109020B431360FFF7FCFE08BD00010B4010B5FFF7F2FE084991
:401300000A68084B1A408024E40122430A600A6813408022120213430B60FFF7E6FE10BD00010B40FF3FFFFF70B5061CFFF7D9FE041CFFF769FF002803D0FFF7DDFF012546
:4013400000E000250848331C0340084A106808490840184310601368012D01D1FFF7BEFF201CFFF7C2FE70BD0404040010020B40FBFBFBFF10B5244B1B685B0715D5234B41
:401380001B685B070ED5224B9969042001401F4C22688A4322609A6982439A61DB68002B00D098470420FFF7BFFF174B1B685B0518D5164B1B685B0510D5154B9969802236
:4013C000D2001140114802688A4302609969114A0A409A611B69002B00D098478020C000FFF7A2FF084B1B685B030CD5074B1B685B0304D5064B5B69002B00D09847802031
:40140000C002FFF791FF10BD10020B401002002074040020FFFBFFFF0160704701607047244B1A781202244B1B781A43234B1B781B02234909780B4322498B4201D1072A40
:4014400006D0D42109018B4206D1042A04D102E01D4B042200E01C4B1C490B601C4B1A601C4B1B781B021C4A1278134380229201934202D0002B02D002E0184B00E0174BCB
:40148000174A1360174B1B781B02174A12781343164A934205D0164A934204D0052B05D103E0144B02E0134B00E0124B124A13607047C046D9F0FF0FD8F0FF0FDFF0FF0F17
:4014C000DEF0FF0F580B0000580D00006C002E4074002E40DBF0FF0FDAF0FF0F0220000078002E40DDF0FF0FDCF0FF0F0F0F000005050000050F000080002E4008B5FFF741
:401500004FFE08BD08B500F02FF808BD08B500F033F808BD08B500F02FF8034800F00EF8032000F011F808BDC115000008B5024800F02AF808BDC046C1150000014B186712
:401540007047C0460000002010B5041CFFF7C9FD044A1368C0218B43A4011C431460FFF7C4FD10BD0CE400E080225201014B1A607047C04600E100E080225201014B1A60B5
:401580007047C04680E100E010B5041CFFF7F4FF201CFFF7D3FF0320FFF7D6FFFFF7E4FF10BDC04608B5FFF79CFD044A136804218B43136030BFFFF798FD08BD10ED00E02A
:4015C00008B50FF079FD08BD002243088B4274D303098B425FD3030A8B4244D3030B8B4228D3030C8B420DD3FF22090212BA030C8B4202D31212090265D0030B8B4219D311
:4016000000E0090AC30B8B4201D3CB03C01A5241830B8B4201D38B03C01A5241430B8B4201D34B03C01A5241030B8B4201D30B03C01A5241C30A8B4201D3CB02C01A524167
:40164000830A8B4201D38B02C01A5241430A8B4201D34B02C01A5241030A8B4201D30B02C01A5241CDD2C3098B4201D3CB01C01A524183098B4201D38B01C01A52414309BB
:401680008B4201D34B01C01A524103098B4201D30B01C01A5241C3088B4201D3CB00C01A524183088B4201D38B00C01A524143088B4201D34B00C01A5241411A00D20146CA
:4016C000524110467047FFE701B5002000F0FCF802BDC0460029F7D003B5FFF775FF0EBC4243891A1847C04603460B437FD4002243088B4274D303098B425FD3030A8B422C
:4017000044D3030B8B4228D3030C8B420DD3FF22090212BA030C8B4202D31212090265D0030B8B4219D300E0090AC30B8B4201D3CB03C01A5241830B8B4201D38B03C01AF8
:401740005241430B8B4201D34B03C01A5241030B8B4201D30B03C01A5241C30A8B4201D3CB02C01A5241830A8B4201D38B02C01A5241430A8B4201D34B02C01A5241030A7D
:401780008B4201D30B02C01A5241CDD2C3098B4201D3CB01C01A524183098B4201D38B01C01A524143098B4201D34B01C01A524103098B4201D30B01C01A5241C3088B423F
:4017C00001D3CB00C01A524183088B4201D38B00C01A524143088B4201D34B00C01A5241411A00D201465241104670475DE0CA0F00D04942031000D34042534000229C4691
:4018000003098B422DD3030A8B4212D3FC22890112BA030A8B420CD3890192118B4208D3890192118B4204D389013AD0921100E08909C3098B4201D3CB01C01A5241830962
:401840008B4201D38B01C01A524143098B4201D34B01C01A524103098B4201D30B01C01A5241C3088B4201D3CB00C01A524183088B4201D38B00C01A5241D9D243088B4277
:4018800001D34B00C01A5241411A00D20146634652415B10104601D34042002B00D54942704763465B1000D3404201B5002000F00BF802BD0029F8D003B5FFF715FF0EBC25
:4018C0004243891A1847C0467047C0460E4B70B500251E1C0D4CE41AA410A54204D0AB00F35898470135F8E70FF096FF084B00251E1C084CE41AA410A54204D0AB00F35814
:4019000098470135F8E770BD2418010024180100241801002C18010030B50024944208D0035D651C0C5DA34201D0181B02E02C1CF4E7002030BD002310B5934203D0CC5CD6
:40194000C4540133F9E710BD031C8218934202D019700133FAE7704710B501F0FDFB10BD10B500F067F910BD10B50749044609780220002907D1204601F00FFC002802D1FC
:40198000204609F093F810BD1E030020FFB585B0002568460E9F057339481C460078002802D0082009B0F0BD10990F9801900097029105A807C800F067F80028F2D1012089
:4019C000694603AA0D73002C1BD0002113E08B00E55A082D09D91E19B678002E05D0083DE55213785B1C137003E0042901D2012003E0491CC9B2B942E9D31178042900D38F
:401A000000200028CED110990F9800F057FF002801D00120C6E701F09FFB1A480599016021888180A188C180A27A0272A17B4172A089012540084843A0810220A0732089E2
:401A400050432081A5726846037B22460799069800F0A2F80028A5D16846094C007B607001F082FB00289DD1064806F0F5F9002898D106F011FA002894D1257092E7000070
:401A80001402002090040020FFB53A4F1C4603463F780020364A0A9E0B9D002F12D100290FD0029991420CD3002B0AD0002C08D00999042905D3002E03D0FF216E318D4207
:401AC00002D2012004B0F0BD00210A460D463FE08B001E19B678002E36D0E35A002B33D073435B199DB20B0000F048F806040E15191D253F2388FF27A678233BEB37BB4237
:401B0000DFD2032EDDD31FE0A3880C2BD9D91A4EB342D6D818E02389302BD2D114E0A389482BCED110E0228A134E1346233B223EB342C6D208E0A38A0F4F1E46233E223FE7
:401B4000BE42BED29342BCD80028BBD1491CC9B2099B9942BCD319461C2251434A190449521802998A42ACD8ACE70020EEE70000D808000014020020DCFF000030B474467D
:401B8000641E2578641CAB4200D21D46635D5B00E31830BC18470000FFB50F4606460024384381B01D46800701D0012438E0FFF7BDFCFFF7ABFC00F097FA00282ED100F002
:401BC000D3FB00282AD11849084600F0ABFE0004000C23D13000154E04D03060B7800020F0803581AD1DEFB23946039800F046F804000ED1B088F2880837801AF9B280B236
:401C000001F080F9002801D0012407E0E8B200F019F900F031F906490120087000F076FA204605B0F0BD0000691D00009C0400201602002010B503480078012801D101F07D
:401C400003F810BD1602002070B5084B0446DA889E8800205518B54206D81D68AA182260DA885118D98070BD032070BD9C04002001480089704700009C040020F0B587B069
:401C800007460D4600208900009006916846FFF7DBFF844600285DD1304800990160002117E02E4B88001A680629115406D22C4C0419667882185670628805E0C419203CC2
:401CC000A67A8218567022891B68C018491C4280C9B2A942E5D300242DE0601CC2B2059025E01E4FA30039689600581840887118039604904E88B04217D938466F46FE80C0
:401D0000B6464F786E4677710297049F4F800168039F5E18767879184E700168764659184E800068029F18184770521CD2B2AA42D7D30598C4B2AC42CFD36046002809D154
:401D400068460699FFF780FF8446002802D1054900980860604607B0F0BD000018020020501801001C0200207047000010B5002809D005494A68002A05D0011F0878800007
:401D8000105801F06DF810BD1802002010B50446FFF76EFFC0B2801DA0420CD307484068002808D0A100405800F0CCFF002801D00470001D10BD002010BD000018020020B3
:401DC000F8B516460D460446FFF752FFC0B2801DA04203D20020C0430090F8BDB2B2E9B2684600F0D5FF0099481C03D0024AA000526811500098F8BD18020020F8B50746FF
:401E0000FFF736FF801DC6B20A49002005460C680DE06178002907D06188B94202D32078FFF7B4FF002804D1241D6D1CEDB2B542EFD3F8BD1802002010B5002801D0FFF7AE
:401E400095FF10BD70B506460948002504680BE06178002905D062882078121D0023FFF7AFFF241D6D1CEDB2B542F1D370BD000018020020002070471CB5002469460C70F2
:401E8000142001902346054A05480CF0E9FC04480068401C00D1FF2420461CBDF51E0000200200203EB5124A0146FF2000230124126800290DD0012914D0042908D104202A
:401EC0006946009308814B8110460CF0C4FC80B23EBD6846009304814381694610460CF0B5FCF4E768460093048143816946EBE72002002070B54589046841680089030014
:401F0000FFF73CFE06240408081D2124002004F079FF1BE0022908D0C8B22A4621460AF049FF2046FFF788FF10E002202A4621460AF040FF2946204600F00AF806E00020E2
:401F40000CF082F902E020460CF02AFD002070BD014B0022DB6818472402002070B5448905680089022803D0032809D0FF2070BD2246094C0023A46829460120A04708E05C
:401F8000FFF7EAFC241DA2B200232946022005F046FE002070BD000024020020704700000248002141600180418070472402002070B50C46002186B016460391012802D075
:401FC000022859D116E003A9012005F080FE01281BD1039D324621462846FFF7ACFC0095287801900220694608814E816846FFF7B5FF41E0214D002B686809D0049004A9CC
:40200000022005F064FE01281DD0022006B070BD002812D0298840182146FFF78CFC28880024801980B228806988091D884206D12C801348FFF792FF03E00320E6E78842EA
:402040001AD96C6018E004986860E278A378110219430B4A698000231060E3565360032313815181A1788170E178C1706178417021780170042028800020C7E72402002010
:40208000A80400203EB515460C46022803D004280CD000203EBD0091019002206946088107484A8100680CF0D6FB07E00AF082FE044B0022DB6829462046984701203EBDE4
:4020C0002002002024020020014AD1609060704724020020034801688068081A0A21484300097047B404002010B5FFF713FA542204490548FFF71FFC03490120C870002035
:4021000010BD00006C1801009407002010B5FFF7F9F910BD70B5134C2368002B08D0207B1149C20705D04008400020738868A08070BD88680B4AA18880B29268814203D9E2
:402140000A4D691A091802E0814202D2411A5118A160A080A0689842EAD300F015F80CF097FB70BDB4040020C0102E40FFFF000010B508461946FFF7A7FF10BD704710B544
:40218000FFF780FF10BD000003480021016041608160C16070470000B404002010B502000DD0FFF7F1FF074C0321207B0843207310010A21FFF78EFA2060002010BDFF201E
:4021C00010BD0000B404002000B504480A21806848430209FFF7D8FF104600BDB40400200248007B8007C00F70470000B404002010B537490868002802DA364B01221A7047
:40220000022290430860344800693149C00B4031096A08425AD0012000F02AFA2E482F497C30FFF7FBF82A480E216C30FFF7F6F8294820218430FFF7F1F8274814219C302F
:40224000FFF7ECF82448FF21C131A430FFF7E6F82148FF212F31B030FFF7E0F81E482049BC30FFF7DBF81C481E49AC30FFF7D6F81C491948491CB430FFF7D0F816481A494A
:40228000B830FFF7CBF814481849CC30FFF7C6F8114817490830FFF7C1F80F481549A830FFF7BCF80C4814498830FFF7B7F80A4812498C30FFF7B2F807481921C90290300E
:4022C000FFF7ACF8FFF7ACF8002010BDFF2010BD00F02E403402002000002E4055650000320300002F3F00003102000010520000EC160000FA12000031D000003AE3000091
:4023000070B50646581C80B245086D00002408E0304600F07FF81055000A1119A41C4870A4B2AC42F4D3D80705D0D0182038D15CC47FD454C17770BD30B50A4C0021001961
:402340005B1E07E0541864782502545C2C430480891C89B29942F5DB994201D1515C018030BD000000102E4010B5FF2000F080F90F49FF2048700E481021801D4180012197
:40238000417001700A490020C91C4870FFF730FF04000AD100F0CCF807210648FFF73CF8044807211830FFF737F8204610BD000034020020CC112E4030B504465B1C18041C
:4023C000450C002308E0204600F024F8241D59005B1CA4B250529BB2AB42F4D330BD000070B500210A4D5B1E0AE0541864782602545C344346193480001D891C80B289B23F
:402400009942F2DB994202D1515C4019018070BD00102E40014940180088704700102E40014A80180180704700102E4010B50B490020487000F07CF8002000F03FF900205F
:4024400000F02CF907210648FEF7E6FF044807211830FEF7E1FF002010BD000037020020CC112E4010B50B46062812D006DC01280CD0032801D1FFF7D9FF10BD0A28FCD032
:402480000B28FAD105480078107010BDFFF76CFF10BD1146184600F02DF910BD3A020020F8B5204DAC6A0127A0071F4E002816DA307806280ED1286A384328621B4800694E
:4024C000F903084381B219481030FEF7A7FF042000F0CEF8134802212830FEF79DFFE00711D0062000F0C4F80F49FF20C91E48707078002802D1686B3843686309480121C6
:402500002830FEF789FFE0050BD53078042802D1052000F0ADF80348FF2101312830FEF77BFFF8BD40F02E403702002000002E4010B503212348FEF771FF0120FEF7DEFF76
:4025400020483038406A204C80076178800F890001431C480C38FEF761FF6078002808D0401E022181401820FFF7A4F9C000083800E0B82081B21548FEF750FF13480321CC
:4025800009021438FEF74AFF10481149B830FEF745FF612189010F48FEF740FF0D480321001FFEF73BFF0C490C48FEF737FF0B480B496038FEF732FF084801218838FEF7F5
:4025C0002DFF10BD70F02E403A020020D8102E4090890000041E2E40FF0F000058122E40209000000849087806280BD148780749002803D1486B400840004863C86A012201
:402600001043C862704700003702002040F02E4001480078704700003702002000B50300FFF7ACFA080D050D0B070507090D012000BD032000BD042000BD022000BDFF2052
:4026400000BD0000074A9168D26889B2064B92B2994204D105498A4201D1012100E000210170704780002E4033D000003FE3000010B50446FEF74AFF072C01D9FF2C01D1F8
:4026800002480470FEF73EFF10BD00003702002001494870704700003402002010B5064A012805D01921C9021046FEF7B7FE10BD1D21C902F8E7000090002E4010B50A4A11
:4026C000141D012808D009491046FEF7A7FE08492046FEF7A3FE10BD04491046891CFEF79DFE0349491DF3E788002E4031D000003AE300000078074AFF2803D04C2804D9C0
:40270000553803E01078087070474F38087010707047000036020020F0B50122002830D000292ED00224420600D003246D2342065B06D21800D0641C034600221EE00C255B
:4027400016466E43104D00277519AF720E4F002ABB51696007D0661EB24209D106466D367606760E05E05E06760E8027BE1B00E080269B198919521C2E81D2B2A242DED346
:4027800000221046F0BD000034060020074900200C2242435218927A012A05D0401CC0B20428F5D3002070470120704734060020F8B5044616460F000BD0184D6868A042E2
:4027C00003D9FF306E30A04203D3FF206E30864201D90120F8BD2046FFF79EF800281BD0324639462046FFF7A6F8F0B200210C224A43521913895668F718A74208D9012709
:40280000A41B1B1B9772834206DAC01A1469C0B2491CC9B20429EAD30020F8BD3406002010B500F05BF80648FF22C1686E320C460448FFF780F803492046FFF76DFF10BD06
:4028400040020020C4040020002070470020054A002902D0012902D002E0506000E09060002070474002002070B5084C154608460549A26889182A46FFF75DF8A0684019FF
:40288000A06028B270BD0000C4040020400200203EB50A226946FFF7E7FF044606480A2200686946FFF738F8002802D00020C0433EBD20463EBD000040020020002803D046
:4028C000FF226E32914201D2FF20704702490A61C860002070470000400200200248002141608160704700004002002070B5074C15460548626880182A46FFF759FF606876
:402900004019606028B270BDC40400204002002010B503490A220968FFF7E8FF10BD00004002002010B50F4A002313600E4A13600E4B18600E4801600E49012008600E4935
:402940000860000290600E490C4808600D4914300860FF381538506000F0BCF800F0CAF9002010BD6C02002054020020800200208402002070020020600200206407002085
:402980006402002078020020014610B50020002910D0094B1A689C685118A14209D25868196080188A0704D08A07920F891A091D196010BD002010BD54020020F8B5002416
:4029C000164E671E321F3D463168136806E01422624310328A58521C1BD0641C9C42F6D36A1C14D02C461422544322460C3288500C214843FFF7C8FF3168002808510AD011
:402A000031680020103408517068401C70602846F8BD2546E4E73846F8BD000064020020F3B50026F64381B000281BDB1E490968884217D80299002914D01B4F14220446B1
:402A40003F1D54432546396810354859401C09D0FEF75CFD38682F1F4159C359994203DBFEF750FD3046FEBD214608310091465801590C20704308180C220299FEF75BFFDE
:402A80000948761C001D0068C159B14200D100260549009A091D865008684159491C4151FEF730FD0020FEBD60020020002803DB07490968884202D90020C04370470449B3
:402AC0001422091D09685043103008587047000060020020F0B500200D4A451E0346171F50600FE014260146714314680E1DA3510C461668083433511668083435511468E4
:402B0000401C635039688842ECD30020F0BD000064020020F3B50026F64381B0002841DB2349096888423DD8029900293AD0204F142204463F1D544325463968103548592F
:402B4000401C2FD0FEF7E2FC3868415900292BD0211D009146580C21005971430F46C1190C220298FEF7E7FE11480021001D0068761C00590C34C0190160416081600C4817
:402B8000001D00680159B14200D100260849009A091D865008684159491E4151FEF7B2FC0020FEBD3046FEBDFEF7ACFCFAE7000060020020FEB504460D4600201E49089E36
:402BC0000860471E009001900290002C11D0486885420ED2002A0CD0002E0AD0642E08D808460C3001681C2068430C18207A002801D03846FEBD0120226020721846FFF71E
:402C0000DDFE6060401C13D06681A6810A4827610C3067610179A94200D205710021684601810A462846029B00F040F82846FEBD00202072DDE700006C02002038B501240E
:402C4000009400F039F838BDFEB50027164EFF433D4600240EE01C20316860430818017A002906D04068FFF721FF002801D0254603E0641C3079A042EDDA681C12D01C2109
:402C800030684D434419FEF741FC69466068FFF741FF0546FEF736FC002DD9D1216868468847D5E7FEBD00007802002038B50024009400F001F838BD1FB500220C49541E10
:402CC0000A60002811DB496888420ED808491C220C31096850430818406801A9FFF7A0FE401C02D0002004B010BD2046FBE700006C020020F0B50021114A4D1E174611710F
:402D00000C3F0B46BD6016E008461C2460431668041D355114680646235014680836A3551468361DA353044616680A34335318301468491C255078688142E5D30020F0BD8A
:402D40007802002038B500210091002811DB0F49097888420DDA0D4D04010C3529680859002807D0201D0818694600F071F9002801D0002038BDFEF7C9FB28680F34015D8D
:402D8000491E0155FEF7BEFB009838BD88020020F7B582B0002502986E1E06602E48D21C024017462D4A2C4610460C380178106805E02301C358002B0FD0641CE4B28C4259
:402DC000F7D3711C28D03401211D40180191039900F02CF900281FD101E02646F1E71F48016820460C300F521C480399026820460E30115419480399026820460F30115482
:402E00000398784300F0A0F8144900280968085102D00024009011E001251AE00F48016801980818009900F02EF9002801D0012502E00098C0190090641CE4B2039884422C
:402E4000ECD3002D05D10298066004480179491C0171284605B0F0BDFCFF000094020020F8B50D4600216A468C461180002839DB23490978884235DA214B04010C3319680B
:402E80000A59002A2ED020460C300B5A801C0E5C184670438018954224D3854222D2002006E007465F43BF18AF4206D0401CC0B2B042F6D36046002814D0114E271DC819F6
:402EC0000C366A46294600F008F900280AD168460088012808D030682946C01900F0D3F8002803D00120F8BD0020F8BDFEF70EFB30680F34015D491C0155FEF703FBF3E746
:402F000088020020F8B50F46002400F033F8002817D10C4900220B460C334A600EE021011D680E466A501D680C36AA53B61C1D680F31AA551D68641C6A54E4B2BC42EED3D0
:402F40001A71F8BD88020020014610B5002000290CD0C91C064B8A08596892005C888A18A24202D898685A60401810BD002010BD88020020F8B5064600200F4D00902970C3
:402F80000C0121466846FEF75FFE00280CD129460C3100980860301B001F84B221466846FEF752FE002801D0FF20F8BD6C800098A8600020F8BD000088020020F8B5002845
:402FC00027DB19490978884223DA174C05010C342168485900281CD028460C30085A009028460E300E5C401C0E5420682F1DC01900F064F800280CD12068002445590EE098
:40300000094829460C300068C01900F03CF8002801D00120F8BD00982D18641CE4B2B442EED30020F8BD00008802002030B50D4604000BD0A800FFF787FF6060002805D03F
:4030400000202570C0436080002030BD012030BD70B50D46040005D0002D03D00220205E002801DA012070BDFEF750FA0221615E60688900405828606088401E6080FEF7AE
:4030800041FA002070BD70B50D46040007D0002D05D002212078615E401E814201DB012070BDFEF733FA6088401C00B26080616880000D50FEF726FA002070BD10B50400A5
:4030C00009D0227800216068FEF73EFC0020C0436080002010BD012010BDF0B500231D46002802D00224045F0AE00120F0BD46689F00F6598E4201D1012503E05B1CDBB2B6
:403100009C42F4DA15700020F0BD000001480078704700009C0200207CB505460024FEF71BFCA8796946087000A8062229460130FEF701FC0021684604F0C2F80C2804D080
:40314000072804D01F2804D004E0022402E0042400E0272420467CBD10B500F0B7F8FFF757FAFFF75BFA10BD10B503240BF0E2FF002810D10BF086FF00280CD104F0F6FD53
:40318000002808D100F064FA002804D104F0F2FA002800D10024204610BD70B50025044600280ED0A07901280BD8FEF7D5FBA0790028204602D002F0D9FD03E002F08EFD6E
:4031C00000E00125284670BD38B504460120002C20D0617801291DD800290BD0FF25E535FEF7BAFB2846FFF715F9C0B22070072803D00EE0FF25CD35F2E70020694608702C
:403200006846FFF71FFA69460878012801D108202070002038BD70B504460120002C1FD06178012902D92278092A19D8002905D0FF25E5352078092803D004E0FF25CD35B1
:40324000F8E708202070FEF787FB2078082808D00020FFF733FA21782846FFF7E1F8002070BD0120FFF72AFA0721F5E770B50D46040001D0002000E00548002802D0012145
:4032800001F0ACFF2946204602F086FA70BD00000808002038B5054600200446009022466946284600F070FE0098002801D00BF023FFA878214602F0B3F8A878214602F06E
:4032C000A2F8641CE4B2052CE9D338BD38B5FFF79FF9042819D0052817D006281AD0032842D007280AD100206946087002460120FFF7B8F8FFF78CF90128FBD138BDFEF789
:4033000051F9FFF785F90128F8D0FFF781F90128F5D138BD02F0ECF805E0FEF743F9FFF777F9012803D0FFF773F90128F5D1A12424012046FFF76EF801220E4983079B0F91
:403340000A70022BE5D149880029E2D0104301462046FFF765F82046FFF75CF8410849002046FFF75DF838BD02F0C6F80120FFF77FF938BDA2020020F8B50646002402F002
:40338000F9FD0546304602F00DFE00210346012632468A40174610462F401840002F03D0002801D1224394B2491CC9B20529EFD32046F8BD1CB50020694648706846FFF77E
:4033C00003FF01AA69460A20FFF74CF86946042008561CBD10B50C4601F07CF9002809D00179002906D0C1788078224602F082FA002010BD022010BD0148007870470000B1
:40340000D40700204030C07E002800D00120704700B500F001F800BD88214843064940186030417F491CC9B24177052901D300214177C8B270470000E807002013B501F021
:4034400049F904000BD001F09CFC002807D0214601AA0A310620FFF705F800201CBD02201CBD000010B50C4601F034F900280AD001F087FC002806D0224604490A20FEF7CC
:40348000F1FF002010BD022010BD0000BD070020F3B581B0074601460026029802F062FD0446002F01D0002500E0154D002D21D0284601F045F9032C04D13946029802F063
:4034C0007BFD06463846029901F09DFF032C06D0002C10D00121384601F020FA03E03146384602F01DFF284601F05EFE0221284601F074FEFEBD3846029901F084FFFEBD0E
:403500000808002070B50446002503F013FB002801D00C2070BD2078611C02F0E5FAFF2802D01F25284670BD02F032FBFF2804D02178621C01F0DCFEF4E70725F2E710B515
:4035400003F0F8FA002801D00C2010BD02F0A4FA002010BD70B50D46044610210BF00CFD1021601806460BF007FD334610221946204603F00BFB102130460BF0FDFC0220E6
:403580002870204604F04EF870BD70B504464078217802028006850FE0781143A67809050002090D0643084601F094F8002812D0022D10D0032D0ED0002E08D001790929EB
:4035C00009D0002907D0214600F0A1F870BD0089002103F05CFF20460BF08EFD70BD0020704770B50446002503F0A4FA002801D00C2070BD2078611C02F076FAFF2802D006
:4036000002F0B8F900E01F25284670BD10B504F0B1F800F0F6F8002010BD10B5044600786178E2780843A17811430843217908436179084305D003F06FFA002803D00C20DC
:4036400010BD122010BD204602F090FB002010BD10B5044803F0D8FA02F096F900F004F8002010BDA4070020F8B5114D00266E706E736E716E76AE76EE766E75AE70EE7019
:40368000AE712F46EE730120B03778723F207871FF20B87100F00EFA0024204601F038FB641C2406240EF8D03E72FE71AE73F8BDE807002070B505460E46084602F05AFCEB
:4036C0000446304602F06EFC0121A9400A46224001400A4301D0012070BD002070BD10B50446084602F05EFC0121A140014201D0012010BD002010BD10B5FEF789FF0328EF
:4037000004D101F0F9FE0120FEF7B2FF10BD70B5044600790D4609281CD000281AD020464030817E491C8176204601F03DFDA078FFF76EFE064602462946204600F00CF835
:40374000002806D1A0783146FFF790FD28460BF0D3FC70BD0846FAE7F7B5054648780C468006870FC8788978000282B0014368468180284601F010FB060007D021462846FB
:40378000049A00F095FB304605B0F0BD384600F03DFC0746034601AA2946204600F0CEFA68468088231DC0B20090A878FF22049901F0ACFF684680883B46C2B2A8780499C4
:4037C00002F050FBDFE770B5002500242846FFF7D3FD060010D03046E040C007C00F07D02146284601F003FE21462846FFF750FE641CE4B2052CEED36D1C2D062D0EE4D0A8
:4038000070BD10B502F0C0F8FFF72EFF0BF0DCFC002010BDF8B5002400F081F80123012800D10124104F00203E4620360425082203E0002801D0002100E0314609790029E1
:4038400007D001290BD002290BD0114681402143CCB2401C0006000EEBD07C70F8BD1C43F7E72C43F5E70000E807002010B5FFF7D1FF10BD10B50B4681791943817103D080
:403880008078114602F0B2FA10BD10B582798A43827102D1807802F0C1FA10BD70B5FF25D53502242846FEF7B5FD0C4A9178002901D0022906D1137852789A18282A01D96D
:4038C000032402E0032900D101244105490DE00201432846FEF7A4FD70BD00009E02002010B500F022F8002807D0012805D0032801D0042801D0002010BD012010BD014603
:4039000010B50020C90701D000F009F810BD014610B50020C90701D000F001F810BD10B52020FEF777FD000A10BD10B51820FEF771FD410501D5042010BD4007800F10BD6B
:4039400038B5044640060CD5684601F0DBFD0220FFF78CFF072002F033F96846007801F045F9200613D5FFF7E0FF01280FD1684601F0C8FD6846007800F09EFA072002F01E
:403980001FF9012001F078FC0220FFF76FFF38BD10B5034A0178117002F021F9002010BD9E02002010B50446FFF7B9FF002801D00C2010BDA27B01211848002A827801D0E6
:4039C0000A4301E05208520082706279012A0FD0C17849084900C170207901280CD06188208802F00BFF2080207904280BD00DE0C2780A43C270EFE7E01D02F09FF9084854
:403A0000808C208002E0E01D02F098F9054920798870204602F0F2F8002010BDE8070020940700209E02002038B50478FFF777FF844201D10C2038BD002C18D00720694668
:403A40000870FFF74DFF012807D10121684600F091F8012801D0092038BD6846007802F0AFF8FFF71BFF02F0F6F8012014E0FFF737FF012806D1684601F044FD6846007834
:403A800000F04EFA072002F09BF802F0DBF8FFF746FF0028FBD10220FFF7E8FE002038BD10B5034A0178517002F078F9002010BD9E02002038B568460BF0B4FA002801D082
:403AC0001F2038BD01210098C90201804180002505714571857107214173857302F08EF8009C202200212046FDF72EFF25702A460021601CFDF728FF204602F070F82046CF
:403B000002F04CF900980BF0F7FA042200210248FDF71AFF002038BD9E0200200346084800B5834209D8184600F0D4FD002804D00089984201D1012000BD002000BD000058
:403B4000FF0E0000074A9179491C8906890E917138220A4092014907090E11430843024908407047E8070020FF0E0000C006C00E70470000F8B507460E4600240D4803E0B8
:403B8000002C01D0002500E005462979002905D0641C2406240EF3D00020F8BD204601F0B7F82E712046FFF7CDFF28813C700120F8BD00000808002010B503F01BF802228D
:403BC000002100F003F801F087FE10BD10B5094B40074907000F090F185A595A40185043C0086421FDF776FD002800D1012080B210BD0000C0180100F7B53D20405C88B00C
:403C000016460C46002829D030786946087200252046FFF7F7FB012800D00125204603A938300191009023460327A17E34332A46206A03F003F802A8089900900B460191F7
:403C400020463A4603A9243002F082FF02466846007A3070204601F047F810460BB0F0BDFFB587B00C4605461078694608723D20005D1746002826D000262046FFF7C2FBDA
:403C8000012800D00126204603A93830019100902346A17E34333246206A02F0CFFF02A80090291D019120462B1D03A924300A9A02F04EFF02006846007A388002D12046D9
:403CC00001F012F810460BB0F0BDF7B53C20405C88B015460C4600280CD0287869460872002806D000262046FFF78CFB012803D003E01F200BB0F0BD0126204603A9383087
:403D00000191009023460327E17E34333246E06902F094FF02A8089900900B46019120463A4603A9243002F045FF02466846007A2870204600F0E2FF1046DBE7FFB5054692
:403D40003C20405C87B016460C46002810D0084601F022F801280BD0308869460883002809D000272046FFF74DFB012805D005E000200BB0F0BD0220FBE70127204602A99B
:403D80003830019100902346E17E34333A46E06902F054FF06A80090291D019120462B1D02A924300A9A02F005FF02466846008B30806846008BA870000AE870204600F0A5
:403DC0009DFF1046D5E770B50D460446FFF71AFB01280AD0E87AA97A00020143A07801F04BFC012808D0002070BD00222421204602F04EFC242070BD28214C2001552046F1
:403E000000F09AFB282070BD002801D0002000E003484030C07F012800D0002070470000080800200146002049070ED50021084B03E0002901D0002200E01A461279022A91
:403E400004D0491C0906090EF3D0704701207047080800200146002049070ED50021084B03E0002901D0002200E01A461279022A04D0491C0906090EF3D0704701207047AC
:403E80000808002010B5044680346068002803D00BF046F90020606010BD4030417070474030817070474030017070470171704792001018C166704770B53C2501F0F6F8B7
:403EC000040004D020460021433001F08FFB2946204600F0C3FB002C02D0A07801F078F870BD000010B5002801D0002000E00348002802D0008903F011FB10BD08080020C6
:403F000010B5002801D0002000E00448002804D00179072901D100F041F810BD0808002010B501F0C3F8002802D0807801F050F810BD00207047000070B50546008A002877
:403F40001ED010491122897A1140C90618D5294640314A8A098A521C4A4392B2D10800D10121540801E0621A94B2A042FBD9FFF7CDF8012804D1298AA878224601F05AFC75
:403F800070BD00009407002000230B60052A04D292001018C26E0A60C366704738B5044600200090A079002814D14020015D052901D00E290ED168460BF044F8002809D18B
:403FC0002046009902F04CFB03481021C28A2046FFF750FC38BD00009407002010B50B4604460146184602F01BF8002802D020460BF08CF810BD13B5044601AA1146062079
:40400000FEF730FA6846818861811CBD002800D10220704770470000F8B504462346401D543300909A1EA078911E01F07AFA25464035A88A298A8000FDF74CFB401E81B29D
:40404000688A884203D96982A07801F04CFF20460021433001F0CAFA8020FEF7DBF9E88102F0C8FDE989891C8AB26179FFF7AEFD01F032FC02F0BEFD2A8A6179FFF7A6FD70
:40408000074601F01BFC688A00280BD0FF26F1363046FEF7BFF90321090201433046FEF7BFF902E0002001F00CFFFF206130FEF7B1F96E8A002E0BD070431049FDF7FAFB6E
:4040C0000004000C01D0401C80B20D49488002E00B4800214180288A704381B2A07801F06BFE2837B9B2204602F08CFBE98AA07801F0BAFDA07801F0A9F9F8BD7102000063
:40410000A20200207FB504468034616805460E46183108226846FDF70EFC31462031082202A8FDF708FC102168460AF025FF6068102108300AF020FF60682B46083024335F
:404140001022694602F022FD7FBD10B504460821FFF79BFB10212046FFF797FB207905281FD006281DD008281AD12189002003F04DF9072020712046FFF744F90146204642
:404180004030012913D00E21017000210176204600F02AFF2046FFF775FE2046FFF7CCFE10BD20890122002103F014F9E1E70521EAE70000FFB581B01F4604460821FFF7AA
:4041C00064FB10212046FFF760FB2079082803D0092804D0042203E00422012501E009220025204600F0C4FD264600204036307022712046FFF746FE0398002D02D00128A2
:4042000008D00BE001280AD120890022029903F0E1F804E02189029803F0F8F8012700203076012F04D0204600F0DEFE05B0F0BD02983073204602F057FA05460548012154
:40424000C28A2046FFF716FB002DEFD109202071ECE700009407002070B50C460546FFF7D1F8012809D108212846FFF70EFB0023012221462846FFF79DFF70BD10B504464D
:4042800000F076FD2046FFF7FDFD00214034217010BD70B505461A24FFF7B4F8012809D108212846FFF7F1FA0023012221462846FFF780FF70BD0000F8B504460020009023
:4042C0000E4668460AF0BEFE002801D00D20F8BD8420005908212030009D00F0F7F920460421383000F0F2F9002E02D1204600F07DFD2946204602F043F90E480821C28ACB
:404300002046FFF7B7FA204600F0D5FE25464035002808D0204600F023F8002801D0092028700020F8BD08202870204600F03CFFF7E7000094070020014610B540310A46B0
:404340000978082906D0092907D00A2901D100F091F810BD0B20107010BD00F001F810BD70B50446007925464035052805D0062803D008280FD00C2070BD0322062120464E
:4043800002F086F90D480821C28A2046FFF772FA1120287010E006202873204602F0A4F90646AA8A0A20424301212046FFF762FA002E01D109202071002070BD94070020C0
:4043C00038B504460020009068460AF03BFE002801D00D2038BD2046009D00F08DF908202071204600F002FD2946204602F0FAF800213D2001550F2040210855204600F083
:40440000D3FE002038BD00B5024600F0B1FC10214032117000BD10B50446FEF7F3FF012809D04020005D112805D100231A4606212046FFF7BFFE10BD10B5FFF786FE10BDBB
:4044400038B504460021684600910AF0FBFD00280CD12046009902F03CF905480821C28A2046FFF707FA0D204034207038BD00009407002038B504460021684600910AF0F7
:40448000E1FD002801D00D2038BD2046009902F015F905480821C28A2046FFF7EBF90C2040342070002038BD9407002000787047F8B50025002801D0002400E01A4C002C72
:4044C00028D0204600F05DFC002823D0207903281CD005281CD026464036B18AA07801F079FCB078012815D10021204601F0B5FD274680373868002802D00AF011FE3D60D1
:404500000020B0702079072805D007E0042000E006202071F8BD2046FFF70EFD0221204600F05CFEF8BD00000808002010B54C22115400F046F810BD10B50446FF21FFF770
:40454000A4F909202071A07801F074FC10BD000038B5FF216A461180002801D0002400E0064C002C08D011460620FDF77BFF684601882046FFF73FFD38BD0000080800201E
:4045800010B504468079002809D022214C200155FF212046FFF779F9204600F012F810BD10B5037902464032002B03D01173092B02D003E0002100E02221117300F001F8BB
:4045C00010BDFEB504460089002700902781207926464036002817D0012815D002280AD112E002AA01A9204601F008FD002807D101980AF08BFD204601F028FD0028F0D049
:404600002046FEF747FEB776254680352868002802D00AF085FD2F606868002802D00AF07FFD6F60317B002915D0009800F047F8A078002100F01EFF2046FFF7BDFAA078F7
:4046400001F004F8A07800F0C3FC0B20FFF70EF900F002FCFEBD1F213173E6E770B50E46054602F0C3FA044606702846FEF7CAFE014601204140204661700C3000F09FFFBC
:40468000002D10D02889608028464030C1782171002E10D169796171018AE180418A2181808A608107E01820FDF7B4FEC005C00F207100206080204602F051FE70BD0A469E
:4046C00010B50146002002F041FF10BD10B50AF02FFA10BD00B50146FFF748FA002801D0002000E00348002802D002898A4200D0002000BD0808002038B504468034606881
:40470000002806D168460AF0ADFC002801D100986060606838BD000010B5014600F03CFB0128887802D0FEF777FE10BD88214843024940186030007F10BD0000E8070020F3
:4047400070B5054604464035A87F012811D1A1788820084A484380186030067F3046FEF7A9FF002805D10220A877A078314601F021F870BDE807002010B50E4CE0790028C6
:4047800016D0FFF720F80C48827FC17F808B00F06BFB01280CD10020E07100F0BCFE0446AC20FDF737FE010B02D0204600F00EFA10BD000098080020E80700207047704769
:4047C000490510B5490F0B00FDF7D8F9060704080C0C0F073E21FFF7A9FE10BD0821FFF7DFFE10BDFFF7EDFE10BDFFF7C9FE10BDF8B507460025002D01D0002600E0204EDC
:4048000000F064FE3046403044890021418100F067FE304600F0B5FA01282BD1A00702D52846FFF745FEE00602D52846FFF790FEA00601D5FEF7C7FF600601D500F0C8FA08
:40484000200602D5284600F01DF8600702D5284600F0FAF9380402D52846FFF751FB780402D52846FFF73EFBE00703D021463046FFF7A6FF6D1C2D062D0EBCD0F8BD00001C
:4048800008080020F8B5002801D0002400E0204C002C39D025464035A878012834D1E98AA07801F0E1F92046FEF7ACFD01282BD002F0A0F92A8A6179FFF788F9064600F005
:4048C000FDFF2836B1B2204601F09CFFE98AA07801F0CAF9FF206130FDF79CFD6E8A0D4F0146002E11D0304648430B49FCF7E2FF0004000C01D0401C80B27880288A7043EE
:4049000081B2A07801F058FAF8BD0020F5E7000008080020A20200207102000070B50D46124A010001D0002401E014462034002C1BD0204600F030FA01280AD188204843AA
:4049400080186030007FFEF7B5FE002801D101F055FE20464030817E491B8176204600F023FC2089294602F092FD70BDE807002070B503460088FFF7ADFE040013D000F0C2
:4049800000FA00280FD02079092819D02546997840352973204601F0A7FE0646A878012803D0AA8A02E0022070BDEA880A20424301212046FEF75EFF002E01D10920207138
:4049C000002070BD0EB5002217216B460292198100905A810120029B00990AF013FC0EBDF8B5184E0024F079002820D10025AC20FDF710FD000B21E0204600F007FEFDF7D2
:404A000009FD07462A46214600F02EFA01280FD00D48012187838577C477F171002D01D0002000E02030002801D000F0BDFBF8BDAC20FDF7EFFC000B641CE4B20028DBD1CE
:404A4000F8BD000098080020E807002010B50088FFF740FE002809D0014640310C460978082905D00B2903D00C2010BD022010BDFFF776FC002801D009202070002010BDA9
:404A800070B503460088FFF725FE040008D0254640352878082805D00B2803D00C2070BD022070BD8420005910220830991CFCF742FF2046FFF726FB2878082804D0204601
:404AC000FFF7D8FC002801D00A202870204600F06BFB002070BD000010B50C46002121700088FFF7F7FD03000BD000F04AF9002807D009481121807A0840C00603D411204A
:404B000010BD022010BD022020701A8A1889002102F038FD002010BD94070020F8B50F46002100910088FFF7D5FD040012D000F028F900280ED0E079410641D4617E022615
:404B40004A07002A08DB8907402500291ADA2843E07135E00220F8BD02F048F80021017021894180A1898180217E4170E189C1803E7005460178134802F06AFA284602F045
:404B8000A5FC1DE0204600F00DF9012806D068460AF058FA002803D00720F8BD2A20F8BDE07900992843E071204601F0C7FD607E0421304360760448C28A2046FEF75AFECC
:404BC0000020F8BD1D040000940700203EB500220F236C460292238100910190628169460EC900200AF00EFB3EBD000070B5054600F05CFA040021D003202071254600263A
:404C00004035EE76E6702046FFF706FA01F01AF80920FEF72BFEA07800F006FD0121204600F0DCFA2E706E70AE7000212046FFF715FD0449887B401C887370BD284601F0EA
:404C4000F9F870BDE807002010B5002801D0002400E00A4C002C0FD020464030417802290AD1002141702046FEF7CCFB002803D10221204600F0B2FA10BD0000080800203D
:404C800070B503460D460088FFF724FD04000BD000F077F8002807D012481121807A0840C00603D4112070BD022070BD20464030418A008A491C41430804C10C58888842A8
:404CC00001D2122070BD20822079072802D12046FFF732F9022028702089002102F07AFC002070BD94070020016A491C016204D1817E491C4906490E81767047C169491C7B
:404D0000C16104D1C17E491C4906490EC176704770B500250646002801D0002400E0114C002C1CD0882200212046FCF70DFEA67000202646207140363070204600F018F85E
:404D4000204601F07FF9084820820848B577807A1121084000D001202075012070BD002070BD000008080020B80B000094070020002101628176C161C1762030017741775F
:404D800070470079002805D0012803D0022801D001207047002070474030807F002800D00120704740300078002807D0012805D0052803D00E2801D0012070470020704746
:404DC00010B5807801F0EEF8002800D0012010BD10B500F0A0FB0446AC20FDF71BFB010B02D02046FFF7F2FE10BD000070B5054604464035A87F002823D1FF206075A07854
:404E00008821144A484380186030417F8823491CC9B24177A078584380186030052901D300214177A0788821484380186030467F0677A1783046FEF73DFC002802D0012071
:404E4000A87770BD0220A877A078314600F0B2FC70BD0000E80700200020401C0006000EFBD0002070470000F0B515468207920F85B0C004C00E02926A469080002D01D0C7
:404E8000002400E0514C002C29D0084600F0BEFB03906846808800280BD00298012845D0022843D003280CD03D20005D012872D086E00398FDF7AEFA01462046FFF79BF8D5
:404EC0007EE00020029002A80AF09CF8002807D03D20005D012876D12046FFF705FF72E06846029E8388324600210398FDF708FA0398FDF78FFA01462046FFF77CF828466F
:404F000000F0B0FA01AA21463046FEF775FE002806D030460AF0E6F83D204C21085528E0F5773146204601F0DBF94CE000200090278968460AF056F8002802D0002005B00D
:404F4000F0BD6846009E8388321D00210398FDF7D7F90398FDF75EFA01462046FFF74BF8284600F07FFA25464035287E00280CD103E02046FFF7E0FA25E001AA2146304689
:404F8000029BFEF76DFE002806D030460AF0A0F83D202873EDE710E00298FFF73BF8390A000101433770717068468088B070000AF0703046FFF706FD05E02046FFF794FEDD
:404FC000284600F04FFA0120B9E700000808002010B5044A917B002901D0491E9173FFF797FE10BDE8070020F8B5074606464037B87F00283DD0B0788821009048431F49B1
:4050000045186035287F0099FEF769FB012831D0287F401CC4B2052C00D300240020B877FF276F772F77A87702460146009800F041FD717DFF2903D0304600F0C4FF7775A7
:4050400001F0DCFA00252F462246694630460097FEF79AFF0099002902D03046FEF757FB641CE4B2052C00D300246D1CEDB2052DEAD3F8BD0320B877F8BD0000E8070020AC
:4050800010B502460021084B03E0002901D0002000E018460479944204D0491C0906090EF3D0002010BD00000808002000B50120FFF7E6FF00BD10B5044601F097FD2189F6
:4050C000018080346168416061682831816002F0B7F910BDF7B50646087982B00C46092807D0A078F0770846FFF756FE012806D010E030460AF00AF8022005B0F0BDA17885
:405100008820284A484380186030007FFEF7D2FA012810D0A078FEF777FE01280BD037780121304601F017FA25462035062F36D00B2F0FD107E06846027C21463046FEF790
:405140004DFF0D20D9E72046FEF75CF9012801D1002028772046FFF7DFFA054604AA21463046FEF7B2FD01205F2108556946087C0090A07833463A46294600F0C7FA69463C
:405180000A7CA0780323294600F06CFEA0782946FEF76CF8304609F0B9FF0020ADE70120D7E70000E807002010B502464032937F0021002B03D1927E002A00D00121064A8C
:4051C000D279002A00D000210279092A00D10121807800F063FE10BD9808002070B50C460646FEF70FF9002814D1012C0ED935464035A87800280DD1687802280AD030794E
:40520000092807D03046FFF7DBFD0446204600F080FD70BD0124F9E770B50D4601280BD0082808D1A8241146B020FDF7F9F829462046FDF7F5F870BD2020FAE710B5014666
:405240000820FDF7EDF810BD10B50446FF20F130012C01D1FF20D530002200F06AFE1020FDF7D8F80349A043088001461020FDF7D7F810BDA602002010B504461020FDF7C7
:40528000C9F80449A043088001461020FDF7C8F810BD0000A602002010B50446012802D0082C07D102E0FF20D53001E0FF20F13000F034FE1020FDF7ADF804492043088055
:4052C00001461020FDF7ACF810BD0000A602002010B504461020FDF79DF804492043088001461020FDF79CF810BD0000A6020020F8B507460120B84085B214460E4601225B
:4053000029467C2000F015FE32462946782000F010FE6078217800020143E078A5780002054360792679000206430C2047430D2080013C182046FDF773F8241D2946204616
:40534000FDF76EF8201D3146FDF76AF8F8BD8B00034310B5D10191201943C000FDF760F810BD000070B505460C46407829780002014341200001FDF753F8E878A978000241
:4053800001430A48FDF74CF860782178000201438320C000FDF744F8E078A1780002014302480830FDF73CF870BD00001404000070B50D46044681B201208002FDF730F87B
:4053C000210C0448FDF72CF881202946C000FDF727F870BD0404000070B5054600242846FDF718F8641CA4B2102CF8D370BD10B50C460146B020FDF713F8FF2021462D30E4
:40540000FDF70EF810BD10B50C460146B020FDF707F8204600F0B8FD0021FDF701F810BD70B50C46054600F005F821462846FFF7DEFF70BD10B50C460146B020FCF7F0FF0A
:40544000FF2021462930FCF7EBFF10BD10B50146B020FCF7E5FFFF20002220211D3000F068FD10BD010210B54D310020FCF7D8FF10BD000010B504020029014608D0B0201F
:40548000FCF7CEFF214675310020FCF7C9FF10BDB020FCF7C5FF512000214001FCF7C0FF00210348FCF7BCFF21467631ECE70000240A000010B554210020FCF7B1FF10BD78
:4054C00010B553210020FCF7ABFF10BD10B5034908884880FFF7D0FE10BD0000A602002010B502484088FFF7F3FE10BDA602002010B5FDF777F810BD10B552210020FCF794
:405500008FFF10BD10B504461820FCF783FF8004400F207010BD10B5B020FCF77BFFC0B210BDF8B50E4601461C461546B020FCF777FFFF20E930FCF76DFF0746FF20013071
:40554000FCF768FF3080FF200930FCF763FF2880FF200530FCF75EFF208079070698490F0170F8BD10B5C820FCF754FF10BD10B50C46002812D05820FCF74CFF2070000ABB
:4055800060705C20FCF746FFA070000AE0706020FCF740FF2071000A607110BDFF20C130FCF738FF2070000A6070FF20C530FCF731FFA070000AE070FF20C930E8E770B5C1
:4055C00004466820FCF726FF06466C20FCF722FF05467020FCF71EFF2670310A6170A570290AE1702071000A607170BD10B50446012905D01820FCF70DFFC00B207010BDA9
:405600004820FCF707FF8007C00FF7E70120C002704710B50C460146B020FCF701FF0321A0014902401810BD8821074B414310B5C918FF2260314A770A7700228A77114652
:4056400000F038FA10BD0000E807002088225043074A10B58018FF21603041770177002181770448418EFF201D3000F057FC10BDE80700209407002010B50C460146B020B9
:40568000FCF7CEFEFF202530FCF7C4FE0222214600F002F810BD000010B50023884201D8081A03E00024E443201A4018044980B2884201D8824200D90123184610BD000045
:4056C000FF7F0000F8B503465078167800020643D07895780002054350791779000288240743002900D098241946B020FCF798FE31462046FCF794FE201D2946FCF790FEA9
:40570000204608303946FCF78BFEF8BDFFB581B014460D4606460A9FFFF77BFF3B460021049AFCF75DFE02484019845505B0F0BDAA02002070B506460D4611242520A40109
:4057400008214001FCF76CFE2B46324600212046FCF746FE70BD70B5212405466401FFF7AFFE10232A4600212046FCF739FE70BD10B5044640782178000201438F20C0003B
:40578000FCF74EFEE078A178000201430148FCF747FE10BD7C04000010B50C460146B020FCF73EFE802021460143FF202930FCF737FE10BD70B50D460146B020FCF730FE60
:4057C000FF241D342046FCF725FE01090901FF202943013001432046FCF722FE70BDF8B500242646012807D0032802D0052808D105E002240A2604E004240C2601E004243D
:405800000D26492701463F013846FCF709FE25204001FCF7FFFDC5B228462042F7D0252031464001FCF7FCFD00213846FCF7F8FD2846F8BD70B50D46044601461646B0207B
:40584000FCF7EEFD512029464001FCF7E9FD31460648FCF7E5FD032189030820FFF71CFD210275310020FCF7DBFD70BD240A000070B50D4604460146B020FCF7D1FDFF2007
:4058800029461930FCF7CCFD21024B310020FCF7C7FD70BD70B5491E8CB205460146B020FCF7BEFDFF2021461930FCF7B9FD29024C310020FCF7B4FD70BD0000054910B5D3
:4058C000884200D908460146FF206130FCF7A8FD10BD0000FF0F0000054910B5884200D908460146FF206530FCF79AFD10BD0000FF0F000070B588251446002900D0982507
:405900000146B020FCF78CFD2846FCF783FD2070000A6070281DFCF77DFDA070000AE07028460830FCF776FD2071000A607170BD10B51446024611200B4680010021FCF74A
:405940003BFD012C01D1FFF7B5FD10BD10B504460920C001FCF75EFD2070000A60700448FCF758FDA070000AE070FFF7A3FD10BD840400000121814010B589B200227C2040
:4059800000F0D7FA10BD000070B5FF210120FFF75BFCFF210820FFF757FC3020FFF76CFC80210020FCF73CFD002211460320FCF759FD374DFF20A98DD530FCF731FD002472
:4059C000FF26F1362146B020FCF72AFD298F3046FCF726FD2046FFF739FE641C2406240EF0D0FF20A98FF930FCF71AFD28481030044600F073F9204600F0B8F900F04CF87C
:405A0000234CB82040346188FCF70AFDA188BC20FCF706FDE188C420FCF702FDFF20698EE130FCF7FDFCA12000210001FCF7F8FC3920FFF74DFCFFF743FD93200721C00048
:405A4000FCF7EEFCFFF736FDE020FFF7C5FCE820FFF7C2FCF020FFF7BFFC0020FEF7ACF8618A0C48FCF7DCFC0A482821001DFCF7D7FCFF210131AC20FCF7D2FC8320002108
:405A80008000FCF7CDFC5B210020FCF7C9FC70BD94070020140A000010B500217C20FCF7BFFC00217820FCF7BBFC74210020FCF7B7FC10BD70B50D4601461446B020FCF7B9
:405AC000AFFCFF261D363046FCF7A4FC01090901FF20294301308143002C01D1102041403046FCF79DFC70BDF3B589B0FF2001900D208001009048780D7800020543C8786A
:405B00008E780002064348790979000201437C200791FCF77FFC06907820FCF77BFC059074210020FCF77CFC18480024049026E00120A04087B20098FCF76CFC0390009826
:405B4000FCF768FC02900098FCF764FC039A29465140029A72401143079A424011430BD10698074208D00598E040C1070998C90F814201D1019405E0641C0498E4B20078C9
:405B8000A042D5D801980BB0F0BD0000D407002070B5FF257C20FCF73DFC0849002401230A7805E01946A140014205D0641CE4B2A242F7D8284670BD2546FBE7D407002045
:405BC00010B504461820FCF725FC0721C90288436107890C01431820FCF722FC10BD10B50446E020FFF7F8FB20782246401CC3B20021E020FCF7A0FB10BD000010B50446E1
:405C000041790079042817D040000843A17B032901D8C9000843617B4A010243A079010207201143C00201431820FCF7F9FB21881C20FCF7F5FB10BD08460149E5E700003D
:405C40000204000010B50120FFF716FB41210020FCF7E6FB10BD10B50120FFF739FB40210020FCF7DDFB10BD10B50C460146B020FCF7D6FBFF2021460D30FCF7D1FB10BDA4
:405C800070B50C4601461E461546B020FCF7C8FBE92021468000FCF7C3FB75202946C000FCF7BEFBEB2031468000FCF7B9FB6C433B20A1B20001FCF7B3FB70BD70B50C4684
:405CC00001461546B020FCF7ABFB21468420FCF7A7FB29468020FCF7A3FB70BD10B504464078217800020143FF20C130FCF798FBE078A17800020143FF20C530FCF790FBA7
:405D00006079217900020143FF20C930FCF788FB10BD70B5A124054624012046FCF77AFB012D07D041084900814202D02046FCF777FB70BD014601221143F5E710B504465A
:405D400040782178000201436820FCF769FBE078A178000201436C20FCF762FB60792179000201437020FCF75BFB10BD10B5044640782178000201435820FCF751FBE07806
:405D8000A178000201435C20FCF74AFB60792179000201436020FCF743FB10BD10B50446E820FFF719FB20782246401CC3B20021E820FCF7C1FA10BD10B50C460146B020D5
:405DC000FCF72EFB21460248FCF72AFB10BD00001C0A000010B50C460146B020FCF720FBFF2021460530FCF71BFB10BD70B5054688000521FBF76EFC84B22946B020FCF71C
:405E00000FFB21460448FCF70BFB290272310020FCF706FB70BD0000040A000010B504460146B020FCF7FCFA210273310020FCF7F7FA10BD10B504460146B020FCF7F0FAE5
:405E4000210270310020FCF7EBFA10BD10B504460146B020FCF7E4FA210271310020FCF7DFFA10BDF8B505461E4614460F46084600F08AF800902802A100084330430446F6
:405E80002946B020FCF7CCFA21460098FCF7C8FA0148C0194655F8BDAF02002070B50D460146B020FCF7BCFAFF241D342046FCF7B1FA40218843A90101432046FCF7B0FA26
:405EC00070BD70B5A124054624012046FCF7A2FA0222002D01D0104300E0904301462046FCF79EFA70BD70B50D460146B020FCF797FAFF2029460930FCF792FAA124240156
:405F00002046FCF787FA0222002D01D0104300E0904301462046FCF783FA70BD70B50C460546FCF777FA204301462846FCF778FA70BDF8B516460D460746FCF76BFA0146FD
:405F400000202C0003D104E06408401C80B2E207FAD08640A9430E43B1B23846FCF760FAF8BD0000024A1018405C8007800F7047AF02002010B50146B020FCF751FAFF20A3
:405F80002D30FCF747FA10BD8000FF30413070470246FF20052902D201484018805C7047AA02002010B50146B020FCF739FAFF202930FCF72FFA10BD0A4600B5014610463E
:405FC000FFF7E6FF00BD38B50C46054600216846009109F037F8002804D1009928464C7000F09EFB38BD10B5044680780021FFF73BFE01212046FFF7F1F810BD436E002B52
:406000000CD00B60014660318B781370826E4266CA788A700021816608467047FF20704710B50346446E6033002C04D0846E002C04D0FF2010BD41669A7001E08166DA7010
:40604000002010BD0021416681667047406E002801D000207047FF20704770B50446C0790D46810610D5DF210840E07100F0BEFD0570218941804034218A8180618AC180A2
:40608000A18A018101F03EF970BD000010B50446FEF782FE01280AD1A1788820054A484380186030007FFDF705FB012801D000F0A5FA10BDE807002070B50D460446FDF705
:4060C000A1F901281CD02079042801D0072816D1E879AE7900020643A0783146FFF7CCFA012813D03246691C204600F035FA02212046FDF7D2FE01212046FFF76FF870BD3A
:4061000001222421204600F0C3FA70BD28214C2001552046FEF710FA70BD70B50D460646FDF751FE002847D120213046FDF7ADFB3446687840346073E87820220002E081DA
:40614000A9780843E0816879010228790843218A814203D0F1791143F1712082E8790102A8790843618A814203D0F1791143F1716082687A0102287A0843A18AE18081420B
:4061800003D0F1791143F171A082A08A218A8000FBF7A0FA401E618A80B2814200D9608201213046FDF77CFEE87AA97A000201430022304600F0DCFA70BD0000F8B50C4695
:4061C0000546FDF71FF9012849D0294EB07AC00709D02846403000900078002805D0102805D01F212EE01A212CE0002700E001272846FEF781FA002823D02E4680360822C4
:40620000611C7068FBF797FB7068617A20300172A17A417270682146183008220B31FBF78AFB21462846042213313430FBF783FB39462846FEF740F8002810D1002F0FD099
:4062400012E007210322284600F022FAF28A08212846FDF70FFB11212846FDF724FEF8BD06212846FDF722FE009801210176F8BD9407002010B5FEF75FF810BD38B504468A
:406280000020009020790D46042801D007281BD12046FDF7B7F8012817D0684608F0D2FE002811D10C486A78807A00991040112210402075607E082210436076204600F0D9
:4062C00079F92046FDF735FE38BD08222421204600F0DEF938BD0000940700207047000070B506460D460846FEF7E0F804463046FEF747FD00280CD0142C04D329463046CF
:4063000000F0C7F805E00549A0000A58294630469047284608F0E6FE70BD0000D018010070B50D460021002801D0002400E00C4C002C14D020464030C177807F032802D154
:406340002046FEF751FE2046FFF7A0FE142D04D20449A800095820468847FEF77DFD70BD080800202019010010B5014640310C4609780E2903D1FEF723F80120207610BDE2
:4063800010B54021095C0F2901D1FEF73CF810BD4021095C0F2902D1002120304177704738B5044600220E4800920D46807A11210840C0060ED52046FEF7F4FC012809D0A3
:4063C000684608F03FFE002803D12046009900F053F938BD2946204600F05BF838BD00009407002010B51021FDF74FFA10BD10B54978FDF731FF10BD10B5FEF70CF810BDC4
:40640000012120304177704710B54021095C0C2901D1FEF715F810BD10B54021095C0D2901D1FEF709F810BD70B5044600790D46052803D0062801D0082802D12046FDF72D
:406440001DFF68784C21085509212046FDF72EFD2046FFF7C8FD2046FCF7D4FF0128A07805D0FFF7E7FC2046FEF79EFE70BDFFF7EDFCF8E710B50446FF21FDF706FA16212F
:406480004C200155A078FFF7D5FC2046FEF78CFE10BD70B50C460546FEF77EFC002802D02078687570BD21782846FFF78CFD70BD70B5054648780C46032802D12846FDF727
:4064C000E8FE6078122803D110212846FDF7DDF970BD704738B5044600200D46009004212046FDF7D2F968782076E8780002A081A9780843A08168790002E0812979084348
:40650000E081607E04210843607680070CD4684608F098FD00281CD12046009900F00EF9607E022108436076E079410611D5BF210840E07100F05AFB0021009001702189F7
:406540004180A1898180217E4170E189C18000F0BDFF38BD7047704770B50446C07815460A4600280AD00020E070C1B2A078FFF7A9F8A0782946FFF77BF970BD0120F3E726
:4065800070B50546042008700C468420415908222031601CFBF7CFF929462046042238310930FBF7C8F90D2229462046FEF792FD002070BD70B5054609200C4608700822DC
:4065C0000021601CFBF7C0F9287D607004480922C07AA07029462046FEF77CFD002070BD940700200B4610B501460B20187001221846FEF76FFD002010BD0000FEB500241C
:40660000164F03E0002C01D0002500E03D462846FFF71CFD00281BD15F20405D002817D16A4601A92846FFF7E9FC002810D1019869460A7806782946FEF74CFD022E07D127
:40664000A8780121FFF72AFC09212846FDF72EFC641C2406240ED5D0FEBD00000808002010B50B46122119708178D977014601221846FEF72FFD10BD10B50B4613211970F6
:406680008178D977014601221846FEF723FD10BD38B50546002000900C46684608F0D2FC002801D0072038BD00980D210170447002222946FEF70EFD002038BD0B4610B57B
:4066C00001460520187001221846FEF703FD002010BD0B4610B501460620187001221846FEF7F8FC002010BD38B5054600200090684608F0A7FC002801D01F2038BD009CE7
:40670000022020704C20405D6070A878E0772846FFF769FC022229462046FEF7DBFC38BD10B50B46072119708178D977014602221846FEF7CFFC002010BD000010B50B4638
:406740000A49044608880C221A704A795A709870000AD870C8881871000A5871062221461846FEF7B7FC002010BD000094070020F8B50446403417460E460546E289617BB6
:406780008078FFF79BFA002F0DD100F033FAE2896979FDF71BFAFFF79FF8608A002800D00120FFF78EFBE388A08A984200D90346628A218AA878FFF763FAA08A218AC00097
:4067C000FAF788FF81B2ED208000FBF729FEE089E188C0080A30081881B21920C001814200D90146A878FFF7F5FAA8783146FFF751F801212846FEF7F1FCF8BD00B500F09D
:406800001FF800BD10B50A4604460B491046FAF761FF4034C01C218A80B2814200D208464900081A81B20548E182C089002802D0884200D2E08210BD71020000D407002050
:4068400040184008704770B505460C46000702D5A0B2FDF7CDFFE80702D0200EFDF770F870BD70B5054650C8FCF730FDFBF752FC2889C01F0300FBF781F90C07130B171A4E
:406880001D0B0B200B100C0BA0B23146FFF7DBFF70BD204600F048FB70BDFDF76DFF70BD2046FCF772FE70BDFCF78DFF70BDFDF785FF70BDFDF783FF70BDE0B2FEF790F841
:4068C00070BD0000F3B5002483B0064627460094019408200294FBF79DFD05460640400713D55020FBF796FDC0B20090700707D5009CA00803D1FBF773FC012800D101279B
:40690000002204200099FEF787FC280755D5A820FBF780FD0146C207674804D0428907231B029A43428142890A434281002208200091FEF771FC300739D5009804434006A9
:406940002CD5FF200930FBF765FDFF201D30FBF761FD8006C00F0190FF200930FBF75AFD00281BD00198002818D1544801214170FF20F130FBF74EFD03210902884301463D
:40698000FF20F130FBF74CFDA1200001FBF742FD02210143A1200001FBF742FD00981021884303D1FBF71CFC012800D101270098C00602D50220FBF76BFEA8070CD53820E1
:4069C000FBF728FDC1B2B00702D508040443012700220220FEF720FCE8071DD02020FBF719FDC0B20090F0070BD000980221000604430098884303D1FBF7F2FB012800D19F
:406A000001270098800702D50220FBF741FE002201200099FEF700FCE80605D50120FBF727FE1020FEF70AFCA80628D5FEF79AFD234908800120FBF71BFE22490020087093
:406A4000FF200930FBF7E6FC0090FF201D30FBF7E1FC80060099C00F00290DD000280BD116494870A1200001FBF7D4FC02210143A1200001FBF7D4FC2020FEF7DFFB680624
:406A800002D54020FEF7DAFB0720694608810020009601944881002F07D069460EC90498002804D0002008F089FB05B0F0BD002008F0A8FBF9E7000048080020A202002071
:406AC000B40200209D020020F0B587B0054605A81E461746019100900C9C04AB06AA02A903A800F0C6F82846FEF735FE21463046FEF720FE6846017A0398FEF759FC05A9FD
:406B000004A8FEF72FFC6846027E21463846FEF71EFC07B0F0BD000070B50548C4782046FCF7EDFE05462046FDF77CF9284370BDE807002070B5054884782046FCF7E7FEA4
:406B400005462046FDF786F9284370BDE8070020F8B5069E1F463478231FDDB23B460095FFF7B2FF3819001FFEF702FE0520FEF736FE0446012229460798FEF7D9FE3570BB
:406B8000E00701D00020F8BD1F20F8BD70B51C4615460E46FEF7DFFD29463046FEF7CAFD0320FEF71CFE012229462046FEF7C0FE1F2070BDF8B5069D079E2C780094FFF740
:406BC00083FF0120FEF70BFE0746002221463046FEF7AEFE3019FEF7B9FE241D2C70F80701D00020F8BD1F20F8BD000000487047A408002008B56A4600210B20FBF732FCF8
:406C00006846007808BD000010B50B4C094923460833A160002142189278002A00D05A54491CC9B20429F6D3FF21A0689A314843A06010BD04030201E807002070B5059C29
:406C4000049D2070060A6670060CA670000EE0704806D101400E0843207104221946601DFAF769FE2046042229460930FAF763FE70BDF8B5079C0E46E178069D0902016014
:406C8000A77839430902016067783943090201602778394301602079611D4006400E30702079C009107004221846FAF744FE2146042209312846FAF73EFEF8BD10B5FEF7D5
:406CC00051FC084A916848408108C3084409414063405940C30F59404008C9070843906010BD0000E807002010B5012200F016F810BD000010B5054802780121002A017080
:406D000002D10120FBF7CEF8002010BDB802002010B5002200F002F810BD0000F8B5204D0F4629781646012904D02978022901D01120F8BD0C2148431A494418E078A1786D
:406D4000884201D31220F8BDFAF7E0FB62780C2361685A4351188CCF8CC1E178601C491CE1706178491CC9B20170A278914201D1002101706868401C68602878012803D0AC
:406D8000FAF7C0FB0020F8BD02202870FAF7BAFB002E03D00020FBF785F8F3E70120FAE7B8020020240A002010B51148002101704160C0220F48FAF7C7FD0E4890220021F6
:406DC000C030FAF7C1FD182200210B48FAF7BCFD0948102181700C21817306494160C03101610649816006494161FBF743F810BDB8020020D4080020240A002063680000BB
:406E0000B17D0000F8B50025114C01262F462078002811D001280FD0022802D0032813D111E000F017F8FAF771FB6068002800D12670FAF767FB07E02078002806D0207899
:406E4000012803D000E02770002DE0D00020F8BDB8020020FEB51F4D1F4E0027FF2400200C2141438919C978002901D0044602E0401C0228F4D3FF2C2AD0FAF747FB0C2092
:406E80004443A41921780C2260685143081801460EC9029301920091076047608760E078401EE0702078401CC0B22070A178884200D127706868002802D06868401E686078
:406EC000FAF720FBA1680029C8D068468847C5E7FEBD0000B8020020240A002010B5830A082B02D008F094F910BD00F0CFF810BD10B50C460146207800F042FC00282046D1
:406F000003D000F007FF002010BD00F0B8FB1F2010BD10B5820A082A02D008F027FA10BD00F056F910BD0000F8B5044640782578000205430020694608702846FFF7E9FF7C
:406F4000012827D16946A0780978884222D01C498D4208D0891D8D4205D0C91C8D4202D0C91C8D4204D11221284600F071F80CE00022022805D32079E178000201430A0536
:406F8000120D12212846FFF7A9FF204608F082F81220F8BD0B4EA80A08282A4631460AD0E01C08F02DFA204608F074F83146284600F00AF8F8BDE01C00F018F9F3E7000070
:406FC0000D2000003C0A0020F8B50D4604460020694608701A48844208D0801D844205D0C01C844202D0C01C844201D101200870A00A08280A462946204609D008F052FA98
:40700000064668460078002805D0012815D110E000F006F9F4E70022002D05D068782978000201430A05120D31462046FFF756FF03E03146204600F00BF83046F8BD0000F9
:407040000D2000000148407A7047000098080020F8B5054600200E4600906946082000F007FB002801D00720F8BD009C0F202070A670FFF7E7FFE0702571280A6071042075
:4070800060702146FF20FFF733FFF8BDF7B5064682B000204B4A4C4B00900420B11AF718964218D008DC002F0FD0012F0FD0052F0FD00D2F12D10CE0032908D005290CD0AC
:4070C00006290AD0072909D101E0072006E00C2004E0052002E00B2000E006206946001D00F0C6FA002802D0072005B0F0BD009D31462846039A00F085F8334804241338CE
:40710000301803D0052801D0062805D10499A9710499090AE9710624039800284BD12949891F701A8E4227D006DC002F0BD0012F11D0052F3FD11CE0062823D009282CD072
:407140000D2838D12FE028191B2181700021C170A41C042012E02E19B01C08220021FAF7F3FB1A481122817A1140B170C07AF07020E0FCF71FF901E0FCF73EF92919887003
:40718000641C18E02919891C0498FCF723F9002801D068710FE0641D0DE02819801C082107F0C6FC06E009492819801C08221C31FAF7C1FB08346C702946FF20FFF798FE6C
:4071C00093E7000015200000FEDFFFFF94070020C0B21F2806D8401E034AC0B2105C08700120704700207047E41A0100D2B21F2A05D8034B9200D218403AD26B10477047CB
:40720000EC19010070B504460E2016460D462070FFF718FFA070E570280A2071667170BD70B50D46C1B2012014461F2911D88E000848214630184038C26B284690470028FD
