:100000000C9427030C9444030C9444030C94440371
:100010000C9444030C9444030C9444030C94440344
:100020000C9444030C9444030C9444030C94440334
:100030000C9444030C9444030C9444030C94440324
:100040000C9444030C9444030C9444030C94440314
:100050000C9444030C9444030C9444030C94440304
:100060000C9444030C9444030A0D0A0D2D2D2D2DE0
:100070002D2D537061726B46756E2053504920537D
:10008000686F72746375742D2D2D2D2D2D0A0D0A38
:100090000D4D41494E204D454E553A0A0D28312906
:1000A00020416374696F6E730A0D283229205365ED
:1000B0007474696E67730A0D0A0D002D3E00496E57
:1000C00076616C6964204368617261637465720A69
:1000D0000D00456E746572206368617261637465BA
:1000E000727320746F2073656E642C207072657358
:1000F0007320656E74657220746F207265747572FA
:100100006E20746F206D656E750A0D2D3E000A0D10
:10011000414354494F4E53204D454E553A0A0D2800
:1001200031292053656E6420636F6D6D616E6420AC
:10013000737472696E670A0D2832292053656E64E4
:100140002041534349492063686172616374657259
:10015000730A0D28332920436F6E74696E756F75AD
:100160007320726563656976650A0D28342920520B
:10017000657475726E20746F206D61696E206D6597
:100180006E750A0D0A0D00526563656976696E67C2
:100190002C204354524C2B4320746F2073746F7087
:1001A0000A0D00456E74657220686578207374725C
:1001B000696E67206F66203235362076616C756512
:1001C00073206F72206C6573732E20507265737389
:1001D0002072657475726E207768656E2066696E30
:1001E00069736865642E0A0D5252203D2052656382
:1001F000656976652C204348203D2043686970205E
:1002000053656C65637420486967682C20434C20F3
:100210003D20436869702053656C656374204C6FA2
:10022000772C204459203D2031306D732044656C7B
:1002300061790A0D00435320486967680A0D00433D
:1002400053204C6F770A0D00537472696E672073E8
:10025000656E74210A0D000A0D53455454494E47EA
:1002600053204D454E553A0A0D28312920536574C7
:1002700020636C6F636B20706F6C6172697479209E
:10028000616E642070686173650A0D2832292053FD
:100290006574206672657175656E63790A0D283321
:1002A00029205365742064617461206F72646572E3
:1002B0000A0D2834292053686F77206375727265A0
:1002C0006E742073657474696E67730A0D2835291E
:1002D0002052657475726E20746F206D61696E2096
:1002E0006D656E750A0D000A0D436C6F636B2073AC
:1002F000657474696E67732063616E206265206443
:100300006566696E656420696E2074686520666F35
:100310006C6C6F77696E6720776179733A0A0D0AA2
:100320000D43504F4C2F435048415F5F5F4C454158
:1003300044494E4720454447455F5F5F5F5F5F5FCD
:100340005F545241494C494E4720454447455F5F01
:100350005F5F5F5F5F5F4D4F44450A0D302F302078
:10036000202020202020202053616D706C652028E3
:10037000526973696E6729202020202053657475A7
:1003800070202846616C6C696E672920202020202F
:1003900020202831290A0D00302F31202020202054
:1003A0002020202053657475702028526973696E6F
:1003B000672920202020202053616D706C65202843
:1003C00046616C6C696E672920202020202028322D
:1003D000290A0D312F3020202020202020202053DA
:1003E000616D706C65202846616C6C696E672920B0
:1003F00020202053657475702028526973696E67D8
:100400002920202020202020202833290A0D312FC8
:10041000312020202020202020205365747570205A
:100420002846616C6C696E6729202020202053616A
:100430006D706C6528526973696E672920202020D1
:10044000202020202834290A0D0A0D004368616EFF
:10045000676520746F206D6F64653A000A0D4D6FFB
:100460006465206368616E676564210A0D0A0D008A
:100470000A0D4672657175656E6379204F707469F7
:100480006F6E733A0A0D0A0D4D4F4445202020200F
:1004900045464645435449564520465245515545E3
:1004A0004E43590A0D2831292020202020202020C9
:1004B0002020344D487A0A0D28322920202020207F
:1004C0002020202020324D487A0A0D283329202070
:1004D0002020202020202020314D487A0A0D283469
:1004E00029202020202020202020203530306B485B
:1004F0007A0A0D28352920202020202020202020A5
:100500003235306B487A0A0D002836292020202009
:100510002020202020203132356B487A0A0D2837E0
:10052000292020202020202020202036322E356B2C
:10053000487A0A0D0A0D4E657720667265717565F9
:100540006E6379206D6F64653A200046726571753F
:10055000656E6379206368616E676564210A0D0AC0
:100560000D000A0D44617461204F72646572204D64
:100570006F6465733A0A0D0A0D2830292020204D3A
:100580005342207472616E736D6974746564206681
:10059000697273740A0D2831292020204C5342209F
:1005A0007472616E736D69747465642066697273C8
:1005B000740A0D4E65772064617461206D6F646507
:1005C0003A200044617461206F7264657220636830
:1005D000616E676564210A0D0A0D000A0D4375728C
:1005E00072656E742053657474696E67733A0A0D90
:1005F0000044617461204F726465723A20004D536B
:10060000420A0D0A0D004C53420A0D0A0D004465C2
:100610006C61792031306D730A0D006800BB00BE3B
:1006200000D2000E018701A30135023F02480257A4
:1006300002E70298034C045C04700409054B056250
:1006400005C305DB05F105FE0506060E06001124AF
:100650001FBECFEFD8E0DEBFCDBF11E0A0E0B1E01C
:10066000E8ECF5E102C005900D92A63BB107D9F781
:1006700014E0A6EBB1E001C01D92A135B107E1F78E
:100680000E94E8070C94E20A0C94000087B1836092
:1006900087B987B1837F87B9209888B18C6088B982
:1006A000289A8AB11AB88BB18FEF8BB908950AC016
:1006B00000002150E9F7315011F403C038E228E27C
:1006C000F7CF01970097D1F70895009731F0000018
:1006D0000000000000000197D1F708958BB11BB80E
:1006E0008AB18FEF8AB908958AB11AB88BB18FEFAA
:1006F0008BB908950E947403339908C0409884E12F
:1007000090E00E94650389B1409A089580E00895C1
:10071000EF92FF92CF93DF93E82EE7017E01F92E4F
:10072000D7010D900020E9F71197AE19BF09AD016F
:1007300041505040141615068CF4A80FB91FFC0147
:1007400020E030E080819E9191938C932F5F3F4F0A
:10075000CA01821B930B28173907A4F3DF91CF91AD
:10076000FF90EF9008950F931F93CF93DF938B012A
:10077000FB0120E030E0CAE0D0E0BE010E94A80A00
:10078000805D81932F5F3F4F862F972F1816190694
:10079000A4F3200F311FF9011082C8010E948803C1
:1007A000DF91CF911F910F9108954F925F926F92B9
:1007B0007F928F929F92AF92BF92CF92DF92EF92F1
:1007C000FF920F931F93DF93CF9300D000D000D000
:1007D000CDB7DEB70F2EF9E1EF2EFF24F02DEC0E92
:1007E000FD1ED701CD90DD907D010E946E03F601C4
:1007F000808100E010E00F2EF0E0AF2EF1E0BF2E80
:10080000F02D3E010894611C711C44245524689409
:1008100041F84C0E5D1E88C03299FECF853209F03A
:1008200076C0F70182E090E0E80EF91E9080F601B4
:10083000E00FF11F8181843621F5892D90E0B3010D
:100840000E94B30389818823C9F0420100D000D0FF
:10085000EDB7FEB73196ADB7BEB71296BC92AE9269
:100860001197828313820E94D503F40181914F0175
:100870000F900F900F900F90882341F70F5F1F4F3D
:100880004DC08837C1F5892D82958F708A3010F060
:10089000895C01C0805D00D000D0EDB7FEB7319615
:1008A000ADB7BEB71296BC92AE92119782831382F7
:1008B0000E94D503892D8F700F900F900F900F908D
:1008C0008A3010F0895C01C0805D00D000D0EDB7A7
:1008D000FEB73196ADB7BEB71296BC92AE921197E5
:1008E000828313820E94D5030F5F1F4F0F900F90DA
:1008F0000F900F9013C0833689F49BB8419881E024
:1009000090E00E945703419A0F5F1F4F07C08BB9B9
:10091000419881E090E00E945703419A0F5F1F4F7A
:10092000F601E00FF11F8081882319F0329974CF0E
:1009300075CF26960FB6F894DEBF0FBECDBFCF9110
:10094000DF911F910F91FF90EF90DF90CF90BF90BC
:10095000AF909F908F907F906F905F904F90089591
:10096000FB0140814423F9F0FC0150815523E9F05B
:10097000DC01119620E030E080E090E003C05D9162
:100980005523A9F0451719F42F5F3F4F04C01216E5
:1009900013060CF49C01FB01E20FF31F408144237A
:1009A00071F781E0089581E0089580E0089580E086
:1009B00008958F929F92AF92BF92CF92DF92FF9253
:1009C0000F931F93DF93CF93CDB7DEB764970FB626
:1009D000F894DEBF0FBECDBF5C014C010894811CB2
:1009E000911CFC0181818A3081F16E010894C11C47
:1009F000D11CF40101E010E001C08C01F0808F2DCA
:100A000090E0C0978A30910518F4F0EDFF0E11C008
:100A10008F2D90E00E94CF0A009719F089ECF80E14
:100A200008C08F2D90E00E94D20A009711F0E9EAE9
:100A3000FE0EF601F1926F01C8010196F501E80F73
:100A4000F91F20812A30C9F602C000E010E0FE0143
:100A5000E00FF11F8AE0818329812A3089F0FE01AD
:100A60003296D40181E090E08C012295207F308184
:100A70003F70232B2D932181029632962A30A1F7C5
:100A8000C80199230CF40196959587950296A80EB6
:100A9000B91E8AE0F501808364960FB6F894DEBF34
:100AA0000FBECDBFCF91DF911F910F91FF90DF90CF
:100AB000CF90BF90AF909F908F9008950E947A033F
:100AC0008823E1F30895CF93DF93E82FF0E0EE0F52
:100AD000FF1FE55EF94F25913491CBEBD3E0CE01BA
:100AE000622F732F0E94D80A00D0EDB7FEB7D283D1
:100AF000C1830E94D5030F900F90DF91CF9108958D
:100B0000EF92FF921F93CF93DF9383E00E946305E0
:100B10000F2EF3E0EF2EF1E0FF2EF02DC8E0D1E034
:100B20000E945E05182F8D3069F400D0ADB7BEB7B6
:100B30001296FC92EE9211970E94D5030F900F909F
:100B40000E94BD0500D000D0EDB7FEB73196ADB71D
:100B5000BEB71296DC93CE931197128313820E9434
:100B6000D5030F900F900F900F900E94910A812F44
:100B70000E949E0A0E94930AD3CF1F9384E00E9492
:100B8000630581E00E9463050E945E05182F00D076
:100B900000D0EDB7FEB7319682E191E0ADB7BEB7B8
:100BA00012969C938E931197128313820E94D50301
:100BB0000F900F900F900F90123369F0133318F4C9
:100BC000113391F405C0133349F0143369F409C0AB
:100BD0000E940F080EC00E9480050BC00E941B0AD5
:100BE00008C00E94FB0505C082E00E9463050E94C8
:100BF000BD051F9108951F930E94930A80E00E94F3
:100C0000630581E00E9463050E945E05182F00D0F5
:100C100000D0EDB7FEB7319689E191E0ADB7BEB730
:100C200012969C938E931197128313820E94D50380
:100C30000F900F900F900F90113319F0123339F479
:100C400003C00E94BD0508C00E942E0605C082E0B8
:100C50000E9463050E94FB051F9108951F938AE07F
:100C60000E94630581E00E9463050E945E05182FC3
:100C700000D000D0EDB7FEB7319689E191E0ADB775
:100C8000BEB712969C938E931197128313820E9483
:100C9000D5030F900F900F900F90133391F01433F2
:100CA00028F4113341F01233A9F408C0143361F071
:100CB000153381F40CC00E94A00711C00E944407A4
:100CC0000EC00E9416070BC00E94710608C00E9449
:100CD000FB0505C082E00E9463050E94FB051F9191
:100CE000089584E10E9463052091B10100D000D0F5
:100CF000EDB7FEB731968EE191E0ADB7BEB7129673
:100D00009C938E931197228313820E94D5030F9098
:100D10000F9088E391E0EDB7FEB7928381830E9444
:100D2000D5038091B3010F900F908433D9F18533AF
:100D300040F48233E9F0833338F5813309F065C03C
:100D400009C0863309F448C08633C0F1873309F0FF
:100D50005CC04EC000D08AE491E0ADB7BEB7129639
:100D60009C938E9311970E94D5030F900F904DC0C6
:100D700000D081E591E0EDB7FEB7928381830E94B8
:100D8000D5030F900F9041C000D088E591E0ADB73A
:100D9000BEB712969C938E9311970E94D5030F9025
:100DA0000F9033C000D08FE591E0EDB7FEB792838E
:100DB00081830E94D5030F900F9027C000D088E652
:100DC00091E0ADB7BEB712969C938E9311970E9497
:100DD000D5030F900F9019C000D081E791E0EDB7D7
:100DE000FEB7928381830E94D5030F900F900DC0B0
:100DF00000D08AE791E0ADB7BEB712969C938E9370
:100E000011970E94D5030F900F9085E10E94630512
:100E10008091B201813321F487E10E94630503C010
:100E200086E10E9463050E942E0608951F9382E1C9
:100E30000E9463050E945E05182F00D000D0EDB718
:100E4000FEB7319689E191E0ADB7BEB712969C939B
:100E50008E931197128313820E94D5031093B201CF
:100E60000F900F900F900F90112321F08CB580629E
:100E70008CBD03C08CB58F7D8CBD83E10E94630562
:100E80000E942E061F9108951F938FE00E94630514
:100E900080E10E9463050E945E05182F00D000D0FB
:100EA000EDB7FEB7319689E191E0ADB7BEB71296C6
:100EB0009C938E931197128313820E94D5031093F3
:100EC000B301812F81530F900F900F900F908230BC
:100ED00020F48CB58C7F8CBD1FC0812F8353823052
:100EE00038F48CB58D7F8CBD8CB581608CBD14C001
:100EF000812F8553823038F48CB58E7F8CBD8CB5B4
:100F000082608CBD09C0173321F48CB583608CBD21
:100F100007C082E00E946305113321F0133311F002
:100F2000153321F48DB581608DBD03C08DB58E7FE5
:100F30008DBD81E10E9463050E942E061F910895D8
:100F40001F938BE00E9463058CE00E9463058DE097
:100F50000E9463050E945E05182F00D000D0EDB7F7
:100F6000FEB7319684E891E0ADB7BEB712969C9378
:100F70008E931197128313820E94D5031093B101AF
:100F80000F900F900F900F90123369F0133318F4F5
:100F9000113391F405C0133349F0143369F409C0D7
:100FA00081ED8CBD0EC085ED8CBD0BC089ED8CBD77
:100FB00008C08DED8CBD05C082E00E9463050E94D3
:100FC000A0078EE00E9463050E942E061F910895DF
:100FD000CF93DF93219A87B1806387B9299AC0E0C4
:100FE000D0E0449A85E090E00E9457034498459AE7
:100FF00085E090E00E94570345982196C330D105C3
:1010000081F788B1806388B90E9446030E94890AEB
:101010000E94FB0580E090E0DF91CF9108952F9230
:101020003F924F925F926F927F928F929F92AF9278
:10103000BF92CF92DF92EF92FF920F931F93CF93C5
:10104000DF9386E00E946305EE24FF24CAE8D1E026
:101050000F2EFDE8CF2EF1E0DF2EF02D0F2EF8EB56
:10106000AF2EF1E0BF2EF02D0F2EF2E02F2EF1E08B
:101070003F2EF02D0F2EF1E04F2EF1E05F2EF02DE0
:1010800066247724689470F80E945E05182F8D30CE
:1010900009F4A4C000D000D0EDB7FEB73196ADB7CB
:1010A000BEB71296DC93CE931197828313820E946F
:1010B000D5030F900F900F900F900E945E05082FA0
:1010C0008D3009F48BC000D000D0EDB7FEB731965B
:1010D000ADB7BEB71296DC92CE921197828313827F
:1010E0000E94D5030F900F900F900F90123541F48E
:1010F000F701EE0FFF1FEA0DFB1D7182608264C0D5
:10110000083441F4F701EE0FFF1FEA0DFB1D518279
:1011100040825AC00C3441F4F701EE0FFF1FEA0D74
:10112000FB1D3182208250C0093551F4F701EE0FCA
:10113000FF1FEA0DFB1D83E091E09183808344C093
:101140000F2EF0ED8F2EF02D810E982D9A30D0F0CD
:10115000812F8154863030F40F2EF9EC8F2EF02D34
:10116000810E10C0812F8156863030F40F2EF9EA9F
:101170008F2EF02D810E06C082E00E9463050E9432
:101180000F08812E802F80538A3088F0815186305D
:1011900010F4865F0CC0802F8156863010F4865F75
:1011A00006C082E00E9463050E940F08802F880C11
:1011B000880C880C880C880D90E0F701EE0FFF1F5B
:1011C000EA0DFB1D918380830894E11CF11CA0E0D3
:1011D000EA16A1E0FA0609F057CF1AC100D081E95A
:1011E00091E0EDB7FEB7928381830E94D5030F9003
:1011F0000F90F0E0EF16F1E0FF0651F40F2EFFEF35
:10120000EF2EFF24F02DC0E0D0E008EB11E004C089
:10121000E114F104C1F7F9C0FE01EE0FFF1FE00F6A
:10122000F11F8081918121E08030920779F480E084
:101230000E949E0A8EB590E080509E4FFE01EE0FF8
:10124000FF1FE00FF11F9183808335C0FE01EE0F79
:10125000FF1FE00FF11F80819181A1E081309A078B
:1012600019F40E94930A27C0FE01EE0FFF1FE00F42
:10127000F11F80819181B1E082309B0719F40E94B7
:10128000910A19C0FE01EE0FFF1FE00FF11F8081D0
:101290009181E1E083309E0729F48AE090E00E948A
:1012A000570309C0FE01EE0FFF1FE00FF11F808101
:1012B00091810E949E0A2196CE15DF0508F4ACCFDD
:1012C0000E94930ACC24DD24C394C0E0D0E008EB54
:1012D00011E00F2EF1EAAF2EF1E0BF2EF02D0F2E10
:1012E000F4E98F2EF1E09F2EF02DFE01EE0FFF1F8F
:1012F000E00FF11F80819181F2E080309F0730F193
:10130000FE01EE0FFF1FE00FF11F8081918100D0E1
:1013100000D000D0EDB7FEB73196ADB7BEB712968C
:101320009C928E921197D382C2829070958384830F
:101330000E94D5030894C11CD11CEDB7FEB73696A8
:101340000FB6F894FEBF0FBEEDBF42C0FE01EE0F18
:10135000FF1FE00FF11F80819181F1E081309F0735
:1013600021F487E00E94630533C0FE01EE0FFF1FEA
:10137000E00FF11F8081918121E08230920721F4FA
:1013800088E00E94630524C0FE01EE0FFF1FE00FFE
:10139000F11F80819181A1E083309A0721F488E1D7
:1013A0000E94630515C0FE01EE0FFF1FE00FF11F45
:1013B0008081918100D000D0EDB7FEB7B282A182CA
:1013C000948383830E94D5030F900F900F900F900A
:1013D0002196CE15DF0508F488CF89E00E946305C9
:1013E0000E94BD05DF91CF911F910F91FF90EF906B
:1013F000DF90CF90BF90AF909F908F907F906F9035
:101400005F904F903F902F9008950E94930AE5CFF0
:1014100000D081E991E0ADB7BEB712969C938E9350
:1014200011970E94D5030F900F900F2EFFEFEF2E14
:10143000FF24F02DE8CEEF92FF920F931F93CF93EE
:10144000DF9385E00E94630580E00E949E0A2EB52E
:1014500000D000D0EDB7FEB731968DEA91E0ADB780
:10146000BEB712969C938E931197228313820E948B
:10147000D5030F900F900F900F900E947A03082FC2
:1014800011E0CDEAD1E00F2EF1E9EF2EF1E0FF2ED1
:10149000F02D27C080E00E949E0A8EB500D000D0BB
:1014A000EDB7FEB73196ADB7BEB71296DC93CE93CB
:1014B0001197828313820E94D5031F5F0F900F90B4
:1014C0000F900F900E947A03082F1F3051F400D024
:1014D000EDB7FEB7F282E1820E94D5030F900F9024
:1014E00010E00330B9F600D083E091E0ADB7BEB7AD
:1014F00012969C938E9311970E94D5030F900F9094
:101500000E94BD05DF91CF911F910F91FF90EF9049
:10151000089588E284B9229A3C9A249886ED8CBD7D
:1015200008952A9808952A9A08950E94930A81E0BE
:1015300090E00E9457030E94910A08958EBD0DB459
:1015400007FEFDCF08950DB407FEFDCF8EB50895BB
:1015500097FB092E07260AD077FD04D00CD006D0C1
:1015600000201AF4709561957F4F0895F6F79095D5
:1015700081959F4F0895AA1BBB1B51E107C0AA1F6D
:10158000BB1FA617B70710F0A61BB70B881F991F24
:101590005A95A9F780959095BC01CD01089585FDD8
:1015A0000EC0806291110BC081568A51E0F70895F8
:1015B000FB01DC0105900D920020E1F708959927C9
:0815C00088270895F894FFCF7D
:1015C8002563000A0D0A0D0053656E742025630A11
:1015D8000D0025630A0D0A0D0025630A0D00506FE2
:1015E8006C61726974792F5068617365204D6F64FE
:1015F800653A2025630A0D00436C6F636B206672A1
:10160800657175656E63793A2000344D487A0A0D24
:1016180000324D487A0A0D00314D487A0A0D0035DE
:1016280030306B487A0A0D003235306B487A0A0D33
:10163800003132356B487A0A0D0036322E356B4848
:101648007A0A0D002025630A0D0025630025632012
:10165800000A0D00522564203D20307825780A0DB7
:101668000053656E7420307825780A0D002578209F
:06167800003130340100D6
:00000001FF
