:100000000C94A0030C94BD030C94BD030C94BD038D
:100010000C94BD030C94BD030C94BD030C94BD0360
:100020000C94BD030C94BD030C94BD030C94BD0350
:100030000C94BD030C94BD030C94BD030C94BD0340
:100040000C94BD030C94BD030C94BD030C94BD0330
:100050000C94BD030C94BD030C94BD030C94BD0320
:100060000C94BD030C94BD030D2A2A2A2A2A2A2A9D
:100070002A2A2A2A2A2A2A2A2A2A2A2A2A2A2A2AE0
:100080002A2A2A2A2A2A2A2A2A2A2A2A2A2A2A2AD0
:100090002A2A2A2A2A2A2A2A2A2A2A2A2A2A2A2AC0
:1000A0002A2A2A2A2A2A0A0957656C636F6D652055
:1000B000746F2053656E2041726475696E6F204FB6
:1000C00070746963616C2D466C6F7720576F726C2A
:1000D00064200A2A2A2A2A2A2A2A2A2A2A2A2A2A70
:1000E0002A2A2A2A2A2A2A2A2A2A2A2A2A2A2A2A70
:1000F0002A2A2A2A2A2A2A2A2A2A2A2A2A2A2A2A60
:100100002A2A2A2A2A2A2A2A2A2A2A2A2A2A2A2A4F
:100110000A00506C6561736520496E7075743A0A07
:1001200000506C6561736520496E7075743A0A20E1
:10013000302C20436F6E74696E756F757320467234
:10014000616D657320506978656C732D42757273AB
:10015000743B0D20312C204F6E6C79204F6E652042
:100160004672616D6520506978656C732D427572B9
:1001700073743B0D20322C204D6F74696F6E2054C8
:100180007261636B696E6720616E64205265636F94
:100190007264696E673B0A20332C2053656E204DD4
:1001A0006F74696F6E2042757273742E0A00496E07
:1001B00076616C6964204368617261637465720A78
:1001C0000D00456E746572206368617261637465C9
:1001D000727320746F2073656E642C207072657367
:1001E0007320656E74657220746F20726574757209
:1001F0006E20746F206D656E750A0D2D3E000A0D20
:10020000414354494F4E53204D454E553A0A0D280F
:1002100031292053656E6420636F6D6D616E6420BB
:10022000737472696E670A0D2832292053656E64F3
:100230002041534349492063686172616374657268
:10024000730A0D28332920436F6E74696E756F75BC
:100250007320726563656976650A0D28342920521A
:10026000657475726E20746F206D61696E206D65A6
:100270006E750A0D0A0D00526563656976696E67D1
:100280002C204354524C2B4320746F2073746F7096
:100290000A0D00456E74657220686578207374726B
:1002A000696E67206F66203235362076616C756521
:1002B00073206F72206C6573732E20507265737398
:1002C0002072657475726E207768656E2066696E3F
:1002D00069736865642E0A0D5252203D2052656391
:1002E000656976652C204348203D2043686970206D
:1002F00053656C65637420486967682C20434C2003
:100300003D20436869702053656C656374204C6FB1
:10031000772C204459203D2031306D732044656C8A
:1003200061790A0D00435320486967680A0D00434C
:1003300053204C6F770A0D00537472696E672073F7
:10034000656E74210A0D000A0D53455454494E47F9
:1003500053204D454E553A0A0D28312920536574D6
:1003600020636C6F636B20706F6C617269747920AD
:10037000616E642070686173650A0D28322920530C
:100380006574206672657175656E63790A0D283330
:1003900029205365742064617461206F72646572F2
:1003A0000A0D2834292053686F77206375727265AF
:1003B0006E742073657474696E67730A0D2835292D
:1003C0002052657475726E20746F206D61696E20A5
:1003D0006D656E750A0D000A0D436C6F636B2073BB
:1003E000657474696E67732063616E206265206452
:1003F0006566696E656420696E2074686520666F45
:100400006C6C6F77696E6720776179733A0A0D0AB1
:100410000D43504F4C2F435048415F5F5F4C454167
:1004200044494E4720454447455F5F5F5F5F5F5FDC
:100430005F545241494C494E4720454447455F5F10
:100440005F5F5F5F5F5F4D4F44450A0D302F302087
:10045000202020202020202053616D706C652028F2
:10046000526973696E6729202020202053657475B6
:1004700070202846616C6C696E672920202020203E
:1004800020202831290A0D00302F31202020202063
:100490002020202053657475702028526973696E7E
:1004A000672920202020202053616D706C65202852
:1004B00046616C6C696E672920202020202028323C
:1004C000290A0D312F3020202020202020202053E9
:1004D000616D706C65202846616C6C696E672920BF
:1004E00020202053657475702028526973696E67E7
:1004F0002920202020202020202833290A0D312FD8
:100500003120202020202020202053657475702069
:100510002846616C6C696E67292020202020536179
:100520006D706C6528526973696E672920202020E0
:10053000202020202834290A0D0A0D004368616E0E
:10054000676520746F206D6F64653A000A0D4D6F0A
:100550006465206368616E676564210A0D0A0D0099
:100560000A0D4672657175656E6379204F70746906
:100570006F6E733A0A0D0A0D4D4F4445202020201E
:1005800045464645435449564520465245515545F2
:100590004E43590A0D2831292020202020202020D8
:1005A0002020344D487A0A0D28322920202020208E
:1005B0002020202020324D487A0A0D28332920207F
:1005C0002020202020202020314D487A0A0D283478
:1005D00029202020202020202020203530306B486A
:1005E0007A0A0D28352920202020202020202020B4
:1005F0003235306B487A0A0D002836292020202019
:100600002020202020203132356B487A0A0D2837EF
:10061000292020202020202020202036322E356B3B
:10062000487A0A0D0A0D4E65772066726571756508
:100630006E6379206D6F64653A200046726571754E
:10064000656E6379206368616E676564210A0D0ACF
:100650000D000A0D44617461204F72646572204D73
:100660006F6465733A0A0D0A0D2830292020204D49
:100670005342207472616E736D6974746564206690
:10068000697273740A0D2831292020204C534220AE
:100690007472616E736D69747465642066697273D7
:1006A000740A0D4E65772064617461206D6F646516
:1006B0003A200044617461206F726465722063683F
:1006C000616E676564210A0D0A0D000A0D4375729B
:1006D00072656E742053657474696E67733A0A0D9F
:1006E0000044617461204F726465723A20004D537A
:1006F000420A0D0A0D004C53420A0D0A0D004465D2
:100700006C61792031306D730A0D0068001201218F
:1007100001AE01C201FE017702930225032F0338C7
:10072000034703D70388043C054C056005F9053BE6
:10073000065206B306CB06E106EE06F606FE0600F6
:1007400011241FBECFEFD8E0DEBFCDBF14E0A0E084
:10075000B1E0E4E2F3E102C005900D92AE30B107E2
:10076000D9F716E0AEE0B4E001C01D92AD3AB10792
:10077000E1F70E9496060C9490090C94000080E525
:100780000E9422098AE18A95F1F700C080E00E9468
:1007900022099AE19A95F1F700C008951EBC0DB4A4
:1007A00007FEFDCF82E08A95F1F700C08EB508956F
:1007B0002F923F924F925F926F927F928F929F9271
:1007C000BF92CF92DF92EF92FF920F931F93CF933E
:1007D000DF9300D080E091E0ADB7BEB712969C9356
:1007E0008E9311970E9416080F900F90C0E0D0E0F2
:1007F0000F2EF5E26F2EF1E07F2EF02D0F2EF3E697
:100800004F2EF1E05F2EF02D0F2EF2E12F2EF1E0B2
:100810003F2EF02D0F2EFFE98F2EF1E09F2EF02DB1
:100820000E94FD0887ED96EDA0E081509040A04029
:10083000E1F700C000000E94BF03082F0E94CE0312
:10084000182F0E94CE03F82E0E94CE03E82E0E949D
:10085000CE03D82E0E94CE03C82E0E94CE03B82EFF
:100860000E94FF0890E19A95F1F700C0C233D105CC
:10087000C9F480E00E943E0900D000D0EDB7FEB779
:100880003196ADB7BEB712963C922E9211978283E5
:1008900013820E9416080F900F900F900F90C1E0E6
:1008A000D0E004C02196C130D10589F400D0EDB765
:1008B000FEB7728261820E941608ADB7BEB712966B
:1008C0005C924E9211970E9416080F900F90EDB710
:1008D000FEB770970FB6F894FEBF0FBEEDBF31960E
:1008E000ADB7BEB712969C928E9211970283138277
:1008F00014831582F6821782E0861186D2861386CB
:10090000C4861586B68617860E941608EDB7FEB710
:1009100070960FB6F894FEBF0FBEEDBF0E94BB07E6
:10092000813309F07DCFDF91CF911F910F91FF901F
:10093000EF90DF90CF90BF909F908F907F906F90BF
:100940005F904F903F902F9008950E94D803089594
:100950000E949707339909C0409886E08A95F1F77D
:1009600000C089B1409A339BF7CF0895EF92FF9270
:100970000F931F93CF93DF930E94910782E00E9411
:100980003E0983E00E943E09082F84E00E943E0950
:10099000182F802F0E949D07812F0E949D07C1E084
:1009A000D0E0EE24FF241FC00E94A7070097B9F0F3
:1009B0008AEA0E949D070E94A80400D089ED91E078
:1009C000EDB7FEB7928381830E9416080F900F90B7
:1009D000DF91CF911F910F91FF90EF90089585E5E2
:1009E0000E949D07E70182E00E943E0983E00E9489
:1009F0003E09082F84E00E943E09182F802F0E9494
:100A00009D07812F0E949D072196C436D1055CF376
:100A1000CBCFCF92DF92EF92FF921F93CF93DF93D2
:100A200083E163E80E9428098BE791E00197F1F7E1
:100A300000C0000083E10E943E09182F86FD0EC011
:100A400000D08BED91E0EDB7FEB7928381830E94D9
:100A500016080F900F90EE24FF2402C0EE24FF240E
:100A60000F2EFEE1CF2EDD24F02DE601812F880F21
:100A7000880F0E949D07F9E1FA95F1F7219789F413
:100A80000894E11CF11C8EE1E816F10479F40E944F
:100A90005309DF91CF911F91FF90EF90DF90CF909E
:100AA000089583E10E943E09182FE0CF83E10E9460
:100AB0003E09182FDACF00D087EF91E0EDB7FEB7EF
:100AC000928381830E9416080F900F900E9409055F
:100AD00000D083E092E0EDB7FEB7928381830E945D
:100AE00016080F900F9008950E94A80408C00E9455
:100AF0005B0583ED90E30197F1F700C000000E94D1
:100B0000A7070097A1F30E94A80408950F931F93CD
:100B100082E00E943E0983E00E943E09082F84E0A3
:100B20000E943E09182F809112069091130601969B
:100B3000909313068093120600D000D02FE032E08D
:100B4000ADB7BEB712963C932E93119714969C9313
:100B50008E9313970E941608EDB7FEB7319689E27F
:100B600092E0ADB7BEB712969C938E931197028315
:100B700013820E941608EDB7FEB731968AE392E021
:100B8000ADB7BEB712969C938E93119712831382C2
:100B90000E9416080F900F900F900F901F910F91C9
:100BA00008950E94BB078823E1F30895CF93DF9354
:100BB000E82FF0E0EE0FFF1FE55FF84F259134912D
:100BC000C7E1D6E0CE01622F732F0E94890900D0C1
:100BD000EDB7FEB7D283C1830E9416080F900F9025
:100BE000DF91CF9108951F9300D08BE492E0ADB7D1
:100BF000BEB712969C938E9311970E94160824B14B
:100C000000D0EDB7FEB731968DE592E0ADB7BEB737
:100C100012969C938E931197228313820E9416083A
:100C200025B1EDB7FEB731968BE692E0ADB7BEB712
:100C300012969C938E931197228313820E9416081A
:100C40002CB5EDB7FEB731968AE792E0ADB7BEB7E7
:100C500012969C938E931197228313820E941608FA
:100C60002DB5EDB7FEB7319688E892E0ADB7BEB7C7
:100C700012969C938E931197228313820E941608DA
:100C80000F900F900F900F9080E00E943E09182F58
:100C900088E690E00E94D60500D000D0EDB7FEB700
:100CA000319686E992E0ADB7BEB712969C938E93CB
:100CB0001197128313820E9416080F900F900F90C5
:100CC0000F901F9108950F931F93CF93DF93C8EA5E
:100CD000D2E00FEE12E000D0EDB7FEB7D283C183B1
:100CE0000E9416080F900F9081E00E94D6050E9486
:100CF000D105803371F400D0EDB7FEB712830183C4
:100D00000E9416080F900F900E94FD080E94740523
:100D1000E2CF823301F70E94FD080E945B0587EA5B
:100D200091E60197F1F700C00000D5CFAF92BF92D6
:100D3000CF92DF92EF92FF920F931F93CF93DF93A7
:100D4000219A87B1806387B9299A0E9469070E9416
:100D5000F10888B1806388B944980E9416090E94FE
:100D6000FF080E94FD0880E00E943E09082F88E6E7
:100D700090E00E94D60500D000D0EDB7FEB73196C6
:100D800080E093E0ADB7BEB712969C938E93119717
:100D9000028313820E9416080F900F9083E193E064
:100DA000EDB7FEB7928381830E94160883E593E036
:100DB000ADB7BEB712969C938E9311970E941608FA
:100DC00080E893E0EDB7FEB7928381830E94160816
:100DD00010921306109212060F900F900CEE13E073
:100DE0000F2EF5EDEF2EF3E0FF2EF02D0F2EFFEB83
:100DF000AF2EF3E0BF2EF02D0F2EFFEECF2EF2E040
:100E0000DF2EF02DC9EDD1E00E94D105803381F4B1
:100E100000D0ADB7BEB71296DC92CE9211970E9469
:100E200016080F900F900E94FD080E94740541C0A3
:100E3000813359F40E94FD080E945B05E7EAF1E660
:100E40003197F1F700C0000034C0823371F400D054
:100E5000ADB7BEB71296BC92AE9211970E9416081B
:100E60000F900F900E94B60424C0833319F40E949F
:100E7000D8031FC0813751F400D0EDB7FEB7F2821E
:100E8000E1820E9416080F900F9013C000D000D08E
:100E9000EDB7FEB73196ADB7BEB712961C930E9361
:100EA0001197828313820E9416080F900F900F9063
:100EB0000F9000D0EDB7FEB7D283C1830E94160811
:100EC00087EA91E60197F1F700C000000F900F90BC
:100ED0009BCF87B1836087B987B1837F87B920981B
:100EE00088B18C6088B9289A8AB11AB88BB18FEF13
:100EF0008BB908950AC000002150E9F7315011F470
:100F000003C038E228E2F7CF01970097D1F70895A0
:100F1000009731F000000000000000000197D1F7B9
:100F200008958BB11BB88AB18FEF8AB908958AB141
:100F30001AB88BB18FEF8BB90895329907C08BB96E
:100F4000419886E08A95F1F700C0419A08951F9371
:100F50000E949707339908C0409886E08A95F1F778
:100F600000C019B1409A01C010E00E949107812F82
:100F700090E01F9108950E949707339908C0409808
:100F800086E08A95F1F700C089B1409A089580E023
:100F90000895EF92FF92CF93DF93E82EE7017E0151
:100FA000F92ED7010D900020E9F71197AE19BF096E
:100FB000AD0141505040141615068CF4A80FB91F0E
:100FC000FC0120E030E080819E9191938C932F5F13
:100FD0003F4FCA01821B930B28173907A4F3DF91F7
:100FE000CF91FF90EF9008950F931F93CF93DF93CE
:100FF0008B01FB0120E030E0CAE0D0E0BE010E949E
:101000006209805D81932F5F3F4F862F972F1816BF
:101010001906A4F3200F311FF9011082C8010E94A4
:10102000C907DF91CF911F910F9108954F925F9261
:101030006F927F928F929F92AF92BF92CF92DF92E8
:10104000EF92FF920F931F93DF93CF9300D000D0C6
:1010500000D0CDB7DEB70F2EF9E1EF2EFF24F02D33
:10106000EC0EFD1ED701CD90DD907D010E94910711
:10107000F601808100E010E00F2EFAE0AF2EF4E0E0
:10108000BF2EF02D3E010894611C711C4424552490
:10109000689441F84C0E5D1E88C03299FECF8532AF
:1010A00009F076C0F70182E090E0E80EF91E90802A
:1010B000F601E00FF11F8181843621F5892D90E042
:1010C000B3010E94F40789818823C9F0420100D04E
:1010D00000D0EDB7FEB73196ADB7BEB71296BC9251
:1010E000AE921197828313820E941608F4018191B7
:1010F0004F010F900F900F900F90882341F70F5FD3
:101100001F4F4DC08837C1F5892D82958F708A3069
:1011100010F0895C01C0805D00D000D0EDB7FEB753
:101120003196ADB7BEB71296BC92AE92119782833C
:1011300013820E941608892D8F700F900F900F90C8
:101140000F908A3010F0895C01C0805D00D000D023
:10115000EDB7FEB73196ADB7BEB71296BC92AE9260
:101160001197828313820E9416080F5F1F4F0F9002
:101170000F900F900F9013C0833689F49BB841985D
:10118000B6E0BA95F1F700C0419A0F5F1F4F07C054
:101190008BB94198E6E0EA95F1F700C0419A0F5FFC
:1011A0001F4FF601E00FF11F8081882319F032995B
:1011B00074CF75CF26960FB6F894DEBF0FBECDBFA5
:1011C000CF91DF911F910F91FF90EF90DF90CF9023
:1011D000BF90AF909F908F907F906F905F904F9057
:1011E000089588E284B9229A3C9A24982A9A85B173
:1011F000877D85B984E58CBD08952A9808952A9A3B
:1012000008950E94FF0883EC99E00197F1F700C070
:1012100000000E94FD0808958EBD0DB407FEFDCFAD
:1012200008950DB407FEFDCF8EB508958DE58CBDF4
:101230008CB58C7F8CBD8DB58E7F8DBD8CB58F7D33
:101240008CBD08958EBD0DB407FEFDCF8EB50895FB
:101250000F931F93082F162F0E94FD08802F806880
:101260000E94220980E18A95F1F700C0812F0E9437
:1012700022090E94FF081F910F9108951F93182FB4
:101280000E94FD08812F8F770E94220980E18A95B4
:10129000F1F700C080E00E942209182F0E94FF0889
:1012A000812F1F910895449A80E18A95F1F700C03B
:1012B00044980E94FF0883E08A95F1F700000E949D
:1012C000FD08089597FB092E07260AD077FD04D064
:1012D0000CD006D000201AF4709561957F4F0895C8
:1012E000F6F7909581959F4F0895AA1BBB1B51E17E
:1012F00007C0AA1FBB1FA617B70710F0A61BB70B86
:10130000881F991F5A95A9F780959095BC01CD012A
:101310000895FB01DC0105900D920020E1F708958E
:04132000F894FFCF6F
:10132400526561647920746F2042757273743A0A4D
:101334000D000A50726F647563744944203D203077
:101344007825780A004D6F74696F6E202044656CAF
:101354007461202044656C74612020537572666149
:101364006365202053687574746572202053687512
:101374007474657220204D6178506978656C4E757F
:101384006D0A0020592F4E20202020205F58202055
:101394002020205F59202020205175616C697479C8
:1013A4002020205F55707065722020205F4C6F777D
:1013B40065722020202830207E203633290A002020
:1013C400307825782020202020256420202020200B
:1013D4002564202020202020202564202020202077
:1013E4002020256420202020202020256420202067
:1013F400202020202025640A000A006661696C65AB
:101404006420746F2066696E642066697273742048
:10141400706978656C0A00696D6167652064617440
:10142400610A002D2D2D2D2D2D2D2D2D2D0A004140
:101434006363756D756C6174696F6E2025642054E7
:10144400696D65733A20202000202044656C746126
:101454005F58203D2025642C2000092044656C74CD
:10146400615F59203D2025640A0D000A0D536574FF
:1014740074696E672075702E2E2E0A0D0044445236
:1014840042203D20307825780A0D00504F525442B6
:10149400203D20307825780A0D0053504352203DDA
:1014A40020307825780A0D0053505352203D2030C7
:1014B4007825780A0D0050726F647563744944206E
:1014C4003D20307825780A00496E707574203220EA
:1014D400666F7220506978656C4275727374206F00
:1014E4006E63653B203020666F7220436F6E7469B3
:1014F4006E756F757320506978656C42757273747C
:101504002C203120746F2073746F702E0A0D0052DA
:101514006561647920746F2042757273743A0A00AD
:1015240050726F647563744944203D203078257887
:101534000A0D000D2A2A2A2A2A2A2A2A2A2A2A2A8B
:101544002A2A2A2A2A2A2A2A2A2A2A2A2A2A2A2AF7
:101554002A2A2A2A2A2A2A2A2A2A2A2A2A2A2A2AE7
:101564002A2A2A2A2A2A2A2A2A2A2A2A2A2A2A2AD7
:101574002A0A000957656C636F6D6520746F2053E8
:10158400656E2041726475696E6F204F7074696373
:10159400616C2D466C6F7720576F726C64200A0063
:1015A4002A2A2A2A2A2A2A2A2A2A2A2A2A2A2A2A97
:1015B4002A2A2A2A2A2A2A2A2A2A2A2A2A2A2A2A87
:1015C4002A2A2A2A2A2A2A2A2A2A2A2A2A2A2A2A77
:1015D4002A2A2A2A2A2A2A2A2A2A2A2A2A0A000AD1
:1015E40053656E4D6F74696F6E5370726F75746965
:1015F4006E673A0A0049276D2053656E2053746F55
:10160400702052657175657374210A006E6F7720BE
:1016140074686520696E7075742069733A20307837
:0E16240025640A0031303401FFFF2563000009
:00000001FF
